:060000000000E3EF05F033
:08000800046ED8CF05F0E0CF33
:1000100006F00001E9CF0CF0EACF07F0E1CF08F0DD
:10002000E2CF09F0D9CF0AF0DACF0BF0F3CF12F01C
:10003000F4CF13F0FACF14F0F5CF15F0F6CF16F099
:10004000F7CF17F0F8CF18F0FBCF19F000C00EF083
:1000500001C00FF002C010F003C011F00E01BDABE3
:1000600035EF00F0C5BBD8EF00F0C0AB3BEF00F0C0
:10007000C8BB6DEF00F00EC000F00FC001F010C063
:1000800002F011C003F00CC0E9FF07C0EAFF078EC1
:1000900008C0E1FF09C0E2FF0AC0D9FF0BC0DAFFC8
:1000A00012C0F3FF13C0F4FF14C0FAFF15C0F5FF30
:1000B00016C0F6FF17C0F7FF18C0F8FF19C0FBFF06
:1000C000045006C0E0FF05C0D8FF10000E01C8A90B
:1000D000FED7996E000193EF00F00001036A4750CC
:1000E000300FE96E000E0320EA6E0E01C8ABFED79A
:1000F00098CFEFFF472A4750140818E1476A465245
:1001000015E1010E446E0001E96BE95113080DE39E
:10011000036AE951300FE96E000E0320EA6EEFCF5B
:10012000EAF0EA51D3D7E92BF0D70E01C89B0001C2
:100130003BEF00F072756E31000072756E32000098
:10014000636C72720000636C72670000636C726FA4
:100150000000636C72620000636C72670000616E85
:10016000696D313300003030303030300000016ACA
:10017000026A006A036AEC5102E1EB5118E0100ECA
:10018000ED6FD890E937EA3700360336EC51035C5F
:1001900002E1EB51005C07E3EB51005ED8A00306DF
:1001A000EC51035ED88001360236ED2FEAD71200FB
:1001B0000001D4A802D0630ED36EC00ED26E572CAD
:1001C00015D05D2AD8B45E2A5EC0EAF05DC0E9F0C1
:1001D000EC6B0A0EEB6FCBDF00C0E9F003C0EAF076
:1001E000E95304E1EA5302E1010E586E562C03D0A4
:1001F0005B2AD8B45C2A592AD8B45A2A59506408C0
:1002000004E15A5202E15A6A596A0E01C59B000183
:100210003BEF00F0EA6AD80EE96EEF500EE0140EE4
:10022000016E006A002EFED7012EFBD7BF0E006EB6
:10023000002EFED700D0EF2EF2D71200D751FC0FC0
:1002400016E2040F38EF01F0889083908892839231
:100250000ED0889083808892839209D08890839072
:100260008892838204D0889083808892838212004F
:10027000E824F76AF736910FF66E020EF722000EA9
:10028000F86EFB6E0A00F550FA6E0800F550F96E34
:10029000480252025C0266020900F55213E0F6CFF2
:1002A000D8F0F7CFD9F0F8CFDAF0F5500E01C8AD9D
:1002B000FED7956FD8C0F6FFD9C0F7FFDAC0F8FFB8
:1002C0000001EAD71200D751000A07E0020A0DE048
:1002D000030A13E0020A19E020D0400EF66E010E68
:1002E000F76E000EF86ED8DF1FD0460EF66E010EC8
:1002F000F76E000EF86ED0DF17D04C0EF66E010EC2
:10030000F76E000EF86EC8DF0FD0520EF66E010EBB
:10031000F76E000EF86EC0DF07D0580EF66E010EB5
:10032000F76E000EF86EB8DF1200D72D08D0340E2D
:10033000F66E010EF76E000EF86EAEDF09D0D753E1
:1003400007E13A0EF66E010EF76E000EF86EA4DFAE
:100350001200D72D08D05E0EF66E010EF76E000E5D
:10036000F86E9ADF07D0660EF66E010EF76E000E7D
:10037000F86E92DF1200D96BD951070811E3036AB6
:10038000D951480FE96E000E0320EA6EEFCFDAF084
:10039000DA510E01C8ADFED7956F0001D92BECD70D
:1003A00012007E0E486E4968060E4A6E4B6E4C6A0D
:1003B0004D6AD7C04EF0EF0E4F6EDDDFF2EF01F069
:1003C0007E0E486E4968060E4A6E030E4B6E4C6AEE
:1003D0004D6AD7C04EF0EF0E4F6ECDDF1200140EF7
:1003E000D76FDFD7010ED76FEBDF95EF06F0080E62
:1003F000016E040E006E002EFED784968996040EC0
:10040000006E002EFED7D9378498D8B08988D8A03E
:10041000899889868EA6FED7012EEBD7040E006E32
:10042000002EFED78496899600008988040E006EFF
:10043000002EFED7040E006E002EFED789868EA6F3
:10044000FED7016A040E006E002EFED78EB8018022
:10045000849689968498899812008988040E006E83
:10046000002EFED78986040E006E002EFED78498DB
:100470008998040E006E002EFED784968996400E51
:10048000D96FB5DFD7C0D9F0B2DFD8C0D9F0AFDFB0
:100490008998000089868EA6FED7040E006E002E75
:1004A000FED700D000008988040E006E002EFED713
:1004B0001200D76BD86BD1DF010ED76FD86FCDDFAD
:1004C0001200F7DF130ED76FD86BC7DF1200E853A7
:1004D0000DE089948484040E006E002EFED789946A
:1004E0008494020E006E002EFED70CD08994848472
:1004F00000D000D000D089948494040E006E002EA9
:10050000FED7000096EF02F0070EE66FE6BF10D0B0
:10051000E5C000F0E651016E04E0D8900032012EF3
:10052000FCD70050010BE76FE86FD1D7E607EED795
:100530001200E3C0E5F0E8DFE2C0E5F0E5DFE4C08B
:10054000E5F0E2DFD1EF02F0010EDF5F0BE3EA6AD4
:10055000DF0EE96EEF5006E0040E006E002EFED7AF
:10056000EF2EFAD7D6EF02F0DE6BDD51DE5D1BE237
:10057000DE51D725E96E000ED821EA6EEFCFE2F00A
:10058000DE51D925E96E000EDA21EA6EEFCFE3F0F5
:10059000DE51DB25E96E000EDC21EA6EEFCFE4F0E0
:1005A000C8D7DE2BE2D73C0EDF6FCED71200080E85
:1005B000016E040E006E002EFED784968996040EFE
:1005C000006E002EFED7D9378498D8B08988D8A07D
:1005D000899889868EA6FED7012EEBD7040E006E71
:1005E000002EFED78496899600008988040E006E3E
:1005F000002EFED7040E006E002EFED789868EA632
:10060000FED7016A040E006E002EFED78EB8018060
:10061000849689968498899812008988040E006EC1
:10062000002EFED78986040E006E002EFED7849819
:100630008998040E006E002EFED784968996480E87
:10064000D96FB5DFD7C0D9F0B2DFD8C0D9F0AFDFEE
:100650008998000089868EA6FED7040E006E002EB3
:10066000FED700D000008988040E006E002EFED751
:100670001200D76B010ED86FD0DF010ED76FD86F85
:10068000CCDF1200F6DF549E130ED76F54C0D8F0A3
:10069000C4DF1200EEDF549C130ED76F54C0D8F0A5
:1006A000BCDF1200E6DF549A130ED76F54C0D8F0A7
:1006B000B4DF1200DEDF5498130ED76F54C0D8F0A9
:1006C000ACDF1200D6DF5496130ED76F54C0D8F0AB
:1006D000A4DF1200CEDF5494130ED76F54C0D8F0AD
:1006E0009CDF1200C6DF549C120ED76F54C0D8F0A6
:1006F00094DF1200BEDF559E120ED76F55C0D8F0A2
:100700008CDF1200E451016AE35D03E2E3C000F014
:100710000CD0006A080EE56FE3370036E451005C48
:10072000D8B0006E0136E52FF7D71200200EDEA9F3
:10073000300EDF6FDDC000F0DDAF08D0001E002AF4
:1007400000C0DDF02D0EDF6FDE8FDE810150DDC0D9
:10075000E3F0640EE46FD6DF00C0DDF0300E01245C
:10076000E06FDDC0E3F00A0EE46FCCDF300E002452
:10077000E26F300E0124E16FDFC000F0300EE05D6B
:1007800004E0DE83DEBFDE8512D0DEB510D0DFC030
:10079000E0F0DEB304D0300EE15D04E0DE81DEBFC8
:1007A000DE8305D0D8A4DE81D8B4E0C0E1F0DEB5A8
:1007B00005D0DEB309D0DEB10DD012D0DF510E016D
:1007C000C8ADFED7956F0001E0510E01C8ADFED750
:1007D000956F0001E1510E01C8ADFED7956F000184
:1007E000E2510E01C8ADFED7956F00011200DB513A
:1007F000630802E2630EDB6FDC51630802E2630E02
:10080000DC6FDBC0DDF0010EDE6F90DFDCC0DDF001
:10081000010EDE6F8BDF1200D951DB03F3CF01F045
:10082000F4CF00F0DC03F3500026DA51DB03F35081
:100830000020026E1200EACFE4F0E9CFE3F0DD39E8
:10084000F009DF6FDF27E20FE06F320FE26FDD515B
:100850000F0BE027E027E227E90FE16FE127E1270F
:10086000DC390F0BE127E227E137E237E21FE237FD
:10087000DC510F0BE227DF37070EDE6F0A0EE107B0
:10088000E227FDE3E007E127FDE3DF07E027FDE3E3
:10089000DE07DF27FDE3EA6ADE0EE96E070EE315E9
:1008A000E39DE926000EEA22E950E20803E1EA525C
:1008B00001E1E38DEF50006E08E1E3BD06D0E3B93E
:1008C0000ED0E3B702D0200E03D0E387E399300EB9
:1008D000002600500E01C8A9FED7996E0001EE5007
:1008E000E3ADE2D71200200EDDA9300EDE6FDCC0D2
:1008F00000F0DCAF08D0001E002A00C0DCF02D0E96
:10090000DE6FDD8FDD810150DCC0E3F0640EE46F4B
:10091000F9DE00C0DCF0300E0124DF6FDCC0E3F054
:100920000A0EE46FEFDE300E0024E16F300E01247A
:10093000E06FDEC000F0300EDF5D04E0DD83DDBF80
:10094000DD8512D0DDB510D0DEC0DFF0DDB304D020
:10095000300EE05D04E0DD81DDBFDD8305D0D8A48D
:10096000DD81D8B4DFC0E0F0DDB505D0DDB309D05E
:10097000DDB10DD012D0DE510E01C8A9FED7996E9F
:100980000001DF510E01C8A9FED7996E0001E051A8
:100990000E01C8A9FED7996E0001E1510E01C8A948
:1009A000FED7996E0001E7EF04F0090EE96ED8C09A
:1009B000DDF0D7C0DCF03FDF2C0E0E01C8A9FED75A
:1009C000996ED9C0DCF0010E0001DD6F8CD72C0EC2
:1009D0000E01C8A9FED7996E090EE96EDBC0DDF0E5
:1009E000DAC0DCF0000127DF12007E0E486E496895
:1009F000060E4A6E010E4B6E4C6A4D6A4E6AEF0E41
:100A00004F6EB9DCBCEF08F0200EDEA9300EDF6FB0
:100A1000DDC000F0DDAF08D0001E002A00C0DDF010
:100A20002D0EDF6FDE8FDE810150DDC0E3F0640E3E
:100A3000E46F68DE00C0DDF0300E0124E06FDDC041
:100A4000E3F00A0EE46F5EDE300E0024E26F300E3B
:100A50000124E16FDFC000F0300EE05D04E0DE83D2
:100A6000DEBFDE8512D0DFC0E0F0200EDF6F300E7B
:100A7000E15D04E0DE81DEBFDE8307D0D8A4DE8145
:100A800004E1E0C0E1F0200EE06FDEB505D0DEB39A
:100A900009D0DEB10DD012D0DF510E01C8ADFED7A6
:100AA000956F0001E0510E01C8ADFED7956F0001B2
:100AB000E1510E01C8ADFED7956F0001E2510E0164
:100AC000C8ADFED7956F00011200D7C0DDF0180E3B
:100AD000DE6F9ADFD8C0DDF0180EDE6F95DFD9C06B
:100AE000DDF0180EDE6F90DFDAC0DDF0180EDE6F7D
:100AF0008BDFDB510E01C8ADFED7956FDCC0DDF09A
:100B0000180E0001DE6F80DF1200D72D06D0310EE7
:100B10000E01C8ADFED7956F0001D75306E1300E28
:100B20000E01C8ADFED7956F00011200A2DD558EF3
:100B3000120ED76F55C0D8F070DD1200BADC130E5C
:100B4000D76FEF0ED86F89DC120093DD5488130E37
:100B5000D76F54C0D8F061DDA1EF0AF08ADD548E62
:100B6000130ED76F54C0D8F058DD120082DD548CBC
:100B7000130ED76F54C0D8F050DDB3EF0AF079DD13
:100B8000548A130ED76F54C0D8F047DDB5EF0AF082
:100B900070DD5484130ED76F54C0D8F03EDDC6EF1D
:100BA0000AF067DD5486130ED76F54C0D8F035DDD8
:100BB00022EF0BF05EDD548C120ED76F54C0D8F0CC
:100BC0002CDD2EEF0BF0F86AF29A078E0E01550E0F
:100BD0009B6FAA0E9B6F9B91110EB06F0A0E886FD0
:100BE0000B0EEE6F090EF26F550E9B6FAA0E9B6FE8
:100BF0009B819E86820E9A6E060E9B6EA60E9D6E41
:100C0000900E9C6E446A456A466A476A9A87820ECD
:100C1000966F060E976FA60E996F900E986F516A99
:100C2000536A526A546A556A566A576A586A5A6AC7
:100C3000596A5C6A5B6A5E6A5D6A0F010C6B146BD1
:100C40001C6B216B296B356B366B376B346B316BDF
:100C5000326B336B306B080E0001D76FFA0ED86F12
:100C60000AEC01F0D72FFAD70E01C08BC00EF2129A
:100C70000001A86BA76BAA6BA96BAC6BAB6BAD6BE0
:100C8000AE6B720EAF6F670EB06FB16BB26BB36BC2
:100C9000B46BB56BB66BB76BB86BB96BBA6BBB6B40
:100CA000BD6BBC6BBE6BBF6BC06BC16BC26BC36BF0
:100CB000C46BC56BC66BC76BC86BC96BCA6BCB6BA0
:100CC000CC6BCD6BCE6BCF6B900ED46E420ED56ECF
:100CD000D4A802D0630ED36EC00ED26E0E01BD8BAF
:100CE000F2120001D76B1EEC01F0D76B63EC01F040
:100CF000010ED76F95EC01F0050ED86F0AEC01F0EC
:100D0000010ED76F1EEC01F0050ED86F0AEC01F052
:100D1000D76BA9EC01F0050ED86F0AEC01F0020EBA
:100D2000D76F1EEC01F0EFEF01F0050ED86F0AEC63
:100D300001F0010ED76FE0EC01F0050ED86F0AEC60
:100D400001F059EC02F061EC02F0050ED86F0AECEC
:100D500001F08390889083928892010EAD6F898A0A
:100D6000B16B8EBAB12B8784B26B8CB4B22B8A86EE
:100D7000B36B8FB6B32B8A82B46B8FB2B42B8788D8
:100D8000B56B8CB8B52B8A84B76B8FB4B72B8786BD
:100D9000B86B8CB6B82B8A88BA6B8FB8BA2B87829F
:100DA000BB6B8CB2BB2B010EAD5DF80FD8B0DEEF84
:100DB0000DF0080FEBEF0DF0B36BD06BD0511708AF
:100DC0001AE3036AD0515F0FE96E000E0320EA6E4A
:100DD000EF6A036AD051770FE96E000E0320EA6EC6
:100DE000EF6A036AD0518F0FE96E000E0320EA6E9E
:100DF000EF6AD02BE3D7D86B5F0ED76FDA6B770E25
:100E0000D96FDC6B8F0EDB6F180EDD6FB4EC02F068
:100E100059EC02F061EC02F02CDC34DC3BDC42DC0F
:100E200049DC50DC57DC5EDC65DC020ED76F1EEC63
:100E300001F0010ED76FE0EC01F0050ED86F0AEC5F
:100E400001F0576A5E6A5D6A566A5C6A5B6A476A65
:100E5000456A446A466ABF6BC06BC16BC26BC36BA9
:100E6000C46BC56BC66BBD6BBC6BA86BA76BAA6B69
:100E7000A96BAC6BAB6B050ED86F0AEC01F0D76BAE
:100E80001EEC01F0AEC0DBF0AEC0DCF0B0DCD76B26
:100E900063EC01F0010ED76F95EC01F0080ED76FEF
:100EA000FA0ED86F0AEC01F0D72FFAD7010ED76FE0
:100EB0001EEC01F0050ED86F0AEC01F0010ED76FA1
:100EC000A9EC01F0040ED76FFA0ED86F0AEC01F00E
:100ED000D72FFAD7020EAD6FDEEF0DF0010E566E72
:100EE000B253D8A48DD0B153D8A489D0CF2D87D0F8
:100EF000D16BD15117081AE3036AD1515F0FE96E24
:100F0000000E0320EA6EEF68036AD151770FE96E95
:100F1000000E0320EA6EEF6A036AD1518F0FE96E6B
:100F2000000E0320EA6EEF6AD12BE3D7D86B5F0E79
:100F3000D76FDA6B770ED96FDC6B8F0EDB6F180E05
:100F4000DD6FB4EC02F0300E305CD86FDA6BD96F25
:100F5000030EDC6FE80EDB6F5FDC02C0D8F001C06F
:100F6000D7F0300E315C640DF350D727000ED82334
:100F7000300E325C0A0DF350D727000ED8233350C1
:100F8000D727000ED823300ED75DBC6F000ED8597E
:100F9000BD6FBF6BC06B010EC16FC26FC36FC46FFB
:100FA000C56FC66F466ED76F1EEC01F0D76BA9EC0C
:100FB00001F0050ED86F0AEC01F0040ED86F570E41
:100FC000D76F010ED96FDB6BDA6BEFDC5C6A5B6AA3
:100FD000566A040ED76FFA0ED86F0AEC01F0D72FBD
:100FE000FAD7020ED76F1EEC01F0040ED76FFA0E7F
:100FF000D86F0AEC01F0D72FFAD7030EAD6FB5D03A
:10100000B153D8A4B2D0CF2DB0D0442CAED0D26B37
:10101000D25117081AE3036AD2515F0FE96E000E2E
:101020000320EA6EEF68036AD251770FE96E000E73
:101030000320EA6EEF6A036AD2518F0FE96E000E49
:101040000320EA6EEF6AD22BE3D7D86B5F0ED76F1F
:10105000DA6B770ED96FDC6B8F0EDB6F180EDD6FDE
:10106000B4EC02F0300E305CD86FDA6BD96F030E3F
:10107000DC6FE80EDB6F0CEC04F002C0D8F001C0AE
:10108000D7F0300E315C640DF350D727000ED82313
:10109000300E325C0A0DF350D727000ED8233350A0
:1010A000D727000ED823300ED75DBC6F000ED8595D
:1010B000BD6F300E355CC76F300E375CC86F300EB9
:1010C000395CC96F300E3B5CCA6F300E3D5CCB6F34
:1010D000300E3F5CCC6F300E415CCD6F300E435C08
:1010E000CE6FC851C725C925CA25CB25CC25CD250E
:1010F000CE25BE6FBE5302E0010EBF6FBE51010888
:1011000004E2010EC16FC26FC36FBE51020802E25A
:10111000010EC06FBE51030802E2010EC46F010E42
:10112000466ED76F1EEC01F0D76BA9EC01F0050EEF
:10113000D86F0AEC01F0040ED86F570ED76F010E6E
:10114000D96FDB6BDA6B31DC5C6A5B6A566A020E64
:10115000D76F1EEC01F0040ED76FFA0ED86F0AECB1
:1011600001F0D72FFAD7030EAD6FDEEF0DF0020EB0
:10117000D76F1EEC01F039D4050ED86F0AEC01F0E0
:10118000010ED76F1EEC01F0010ED76FD86BD96B33
:10119000DA6BAFC0DBF0030EDC6F97DC5C6A5B6A76
:1011A000040EAD6FDEEF0DF0010E566E5B5064085D
:1011B0000CE15C520AE1010ED76FD86FD96BDA6B84
:1011C000AFC0DBF0030EDC6F80DC5B50C8080CE1C5
:1011D0005C520AE1010ED76FD86FD96FDA6BAFC0DE
:1011E000DBF0030EDC6F71DC5B502C080CE15C2C37
:1011F0000AD0010ED76FD86FD96FDA6FAFC0DBF0AE
:10120000030EDC6F62DC5B50900844E15C2C42D042
:10121000010ED76FD86FD96FDA6FB0C0DBF0030E55
:10122000DC6F53DCD36BD35117081AE3036AD35135
:101230005F0FE96E000E0320EA6EEF6A036AD35176
:10124000770FE96E000E0320EA6EEF68036AD35150
:101250008F0FE96E000E0320EA6EEF6AD32BE3D7FF
:10126000D86B5F0ED76FDA6B770ED96FDC6B8F0E92
:10127000DB6F180EDD6FB4EC02F0050ED86F0AECD0
:1012800001F05E6A5D6A010E576E5C6A5B6A566ABF
:10129000050EAD6FB153D8A47FD0CF2D7DD039ECE2
:1012A00003F0050ED86F0AEC01F0030ED76F1EECA9
:1012B00001F0C3C0D7F029DC050ED86F0AEC01F0AD
:1012C000C42D03D039EC03F031DC59EC02F036DCEC
:1012D000BDC0D8F0BCC0D7F0020ED96FDB6BDA6BA3
:1012E000D5EC04F0050ED86F0AEC01F0020ED76FB2
:1012F0001EEC01F0030ED76FE0EC01F0050ED86F85
:101300000AEC01F0566A5C6A5B6A010E576E5E6A0F
:10131000C80E5D6E010ED76F1EEC01F0010ED76F87
:10132000D86FD96FDA6FB0C0DBF0030EDC6F65ECFD
:1013300005F0D46BD45117081AE3036AD4515F0F38
:10134000E96E000E0320EA6EEF6A036AD451770F4C
:10135000E96E000E0320EA6EEF68036AD4518F0F26
:10136000E96E000E0320EA6EEF6AD42BE3D7D86B48
:101370005F0ED76FDA6B770ED96FDC6B8F0EDB6F7A
:10138000180EDD6FB4EC02F0050ED86F0AEC01F018
:101390005C6A5B6A060EAD6FDEEF0DF0B1535BE188
:1013A000CF2D59D0D56BD55117081AE3036AD55103
:1013B0005F0FE96E000E0320EA6EEF6A036AD551F3
:1013C000770FE96E000E0320EA6EEF6A036AD551CB
:1013D0008F0FE96E000E0320EA6EEF68D52BE3D77E
:1013E000D86B5F0ED76FDA6B770ED96FDC6B8F0E11
:1013F000DB6F180EDD6FB4EC02F0050ED86F0AEC4F
:1014000001F0030ED76F1EEC01F0C3C0D7F085ECDE
:1014100005F0050ED86F0AEC01F05EC0ACF05DC0BF
:10142000ABF0BDC0D8F0BCC0D7F0020ED96FACC0D5
:10143000DBF0ABC0DAF0D5EC04F059EC02F09EEC36
:1014400005F039EC03F0C42D04D039EC03F096EC30
:1014500005F0060EAD6F582C37D0D76B1EEC01F09F
:10146000586AD76B63EC01F0010ED76F95EC01F071
:101470001B6AF2BE1B8EF29E5EC0EAF05DC0E9F010
:10148000EC6B640EEB6FB7EC00F01BBEF28E02C08B
:10149000D8F001C0D7F01B6AF2BE1B8EF29E5EC070
:1014A000EAF05DC0E9F0EC6B640EEB6FB7EC00F0B6
:1014B0001BBEF28E00C0D9F003C0DAF0D7C0DBF05B
:1014C00000C0DCF0F7EC03F079D3D66BD6511708E7
:1014D0001AE3036AD6515F0FE96E000E0320EA6E2D
:1014E000EF6A036AD651770FE96E000E0320EA6EA9
:1014F000EF6A036AD6518F0FE96E000E0320EA6E81
:10150000EF6AD62BE3D7D86B5F0ED76FDA6B770E07
:10151000D96FDC6B8F0EDB6F180EDD6FB4EC02F051
:1015200039EC03F0B42D80D0B553D8A47DD0010E92
:10153000B66F39EC03F07AEC03F0C12D02D0A5EFC1
:1015400005F0BF2D08D0C02D06D0AEEC05F04AEC5A
:1015500003F052EC03F0BF5308E1C05306E1AEECD8
:1015600005F0B6EF05F0BFEF05F0BF5303E1C02D66
:1015700001D004D0BF2D08D0C05306E142EC03F0E7
:101580004AEC03F052EC03F0C8EF05F05EC0A8F09F
:101590005DC0A7F0D76B1EEC01F0020ED76F63ECB5
:1015A00001F0D76B95EC01F01B6AF2BE1B8EF29E28
:1015B000A8C0EAF0A7C0E9F0EC6B640EEB6FB7ECE3
:1015C00000F01BBEF28E02C0D8F001C0D7F01B6A3B
:1015D000F2BE1B8EF29EA8C0EAF0A7C0E9F0EC6B49
:1015E000640EEB6FB7EC00F01BBEF28E00C0D9F0BA
:1015F00003C0DAF0D7C0DBF000C0DCF0F7EC03F09A
:10160000050ED86F0AEC01F0BDC0D8F0BCC0D7F011
:10161000040ED96FA8C0DBF0A7C0DAF0D5EC04F057
:101620005C6A5B6A070EAD6FB72D67D0B85365E192
:10163000B62D63D0010EB96F5AEC03F0C22D02D063
:10164000D1EF05F039EC03F042EC03F04AEC03F083
:1016500052EC03F06AEC03F0DAEF05F05EC0A8F09C
:101660005DC0A7F0D76B1EEC01F0020ED76F63ECE4
:1016700001F0D76B95EC01F01B6AF2BE1B8EF29E57
:10168000A8C0EAF0A7C0E9F0EC6B640EEB6FB7EC12
:1016900000F01BBEF28E02C0D8F001C0D7F01B6A6A
:1016A000F2BE1B8EF29EA8C0EAF0A7C0E9F0EC6B78
:1016B000640EEB6FB7EC00F01BBEF28E00C0D9F0E9
:1016C00003C0DAF0D7C0DBF000C0DCF0F7EC03F0C9
:1016D000050ED86F0AEC01F0BDC0D8F0BCC0D7F041
:1016E000050ED96FA8C0DBF0A7C0DAF0D5EC04F086
:1016F0005C6A5B6A070EAD6FE1D0BA2D63D0BB5355
:1017000061E1B62D5FD0B92D5DD062EC03F05EC013
:10171000AAF05DC0A9F039EC03F072EC03F0020E00
:10172000D76F1EEC01F0040ED76FE0EC01F0050E50
:10173000D86F0AEC01F0D76B1EEC01F0D76B95EC7B
:1017400001F01B6AF2BE1B8EF29EAAC0EAF0A9C08D
:10175000E9F0EC6B640EEB6FB7EC00F01BBEF28EA1
:1017600002C0D8F001C0D7F01B6AF2BE1B8EF29EF9
:10177000AAC0EAF0A9C0E9F0EC6B640EEB6FB7EC1D
:1017800000F01BBEF28E00C0D9F003C0DAF0D7C063
:10179000DBF000C0DCF0F7EC03F0050ED86F0AECCC
:1017A00001F05C6A5B6ABDC0D8F0BCC0D7F0060E21
:1017B000D96FAAC0DBF0A9C0DAF0D5EC04F0080EAE
:1017C000AD6F7CD0582C39D0D76B1EEC01F0586A25
:1017D000030ED76F63EC01F0010ED76F95EC01F0AB
:1017E0001B6AF2BE1B8EF29E5EC0EAF05DC0E9F09D
:1017F000EC6B640EEB6FB7EC00F01BBEF28E02C018
:10180000D8F001C0D7F01B6AF2BE1B8EF29E5EC0FC
:10181000EAF05DC0E9F0EC6B640EEB6FB7EC00F042
:101820001BBEF28E00C0D9F003C0DAF0D7C0DBF0E7
:1018300000C0DCF0F7EC03F041D05E5026083EE239
:10184000FF0A03E15D500D0839E272EC03F0010E6E
:10185000D76F1EEC01F0010ED76FD86FD96FDA6F1A
:10186000AFC0DBF0030EDC6F65EC05F0050ED86F42
:101870000AEC01F0020ED76F1EEC01F0040ED76FD8
:10188000E0EC01F0050ED86F0AEC01F0270EAA6F0C
:101890000F0EA96FD76B1EEC01F0D76B63EC01F054
:1018A000D76B95EC01F0630EDB6FDC6FF7EC03F0A8
:1018B000050ED86F0AEC01F0080EAD6F7FD1010E56
:1018C000566E5B50C80805E15C5203E1566A060E8D
:1018D000AD6F5E50260865E2FF0A03E15D500E0819
:1018E00060E272EC03F0010ED76F1EEC01F0010E06
:1018F000D76FD86FD96FDA6FAFC0DBF0030EDC6F34
:1019000065EC05F0050ED86F0AEC01F0020ED76FFA
:101910001EEC01F0030ED76FE0EC01F0050ED86F5E
:101920000AEC01F05EC0AAF05DC0A9F0D76B1EEC16
:1019300001F0D76B63EC01F0D76B95EC01F01B6AFB
:10194000F2BE1B8EF29EAAC0EAF0A9C0E9F0EC6BD1
:10195000640EEB6FB7EC00F01BBEF28E02C0D8F045
:1019600001C0D7F01B6AF2BE1B8EF29EAAC0EAF03D
:10197000A9C0E9F0EC6B640EEB6FB7EC00F01BBE96
:10198000F28E00C0D9F003C0DAF0D7C0DBF000C09F
:10199000DCF0F7EC03F0050ED86F0AEC01F0080E4E
:1019A000AD6F0CD1010E566E050ED86F0AEC01F02A
:1019B000D76B1EEC01F05B50320831E15C522FE135
:1019C0001B6AF2BE1B8EF29EAAC0EAF0A9C0E9F023
:1019D000EC6B640EEB6FB7EC00F01BBEF28E02C036
:1019E000D8F001C0D7F01B6AF2BE1B8EF29EAAC0CF
:1019F000EAF0A9C0E9F0EC6B640EEB6FB7EC00F015
:101A00001BBEF28E00C0D9F003C0DAF0D7C0DBF005
:101A100000C0DCF0F7EC03F0D76B63EC01F05B5037
:101A2000640832E15C5230E11B6AF2BE1B8EF29E0A
:101A3000AAC0EAF0A9C0E9F0EC6B640EEB6FB7EC5A
:101A400000F01BBEF28E02C0D8F001C0D7F01B6AB6
:101A5000F2BE1B8EF29EAAC0EAF0A9C0E9F0EC6BC0
:101A6000640EEB6FB7EC00F01BBEF28E00C0D9F035
:101A700003C0DAF0D7C0DBF000C0DCF0F7EC03F015
:101A8000020ED76F63EC01F05B50960832E15C52B6
:101A900030E11B6AF2BE1B8EF29EAAC0EAF0A9C01A
:101AA000E9F0EC6B640EEB6FB7EC00F01BBEF28E4E
:101AB00002C0D8F001C0D7F01B6AF2BE1B8EF29EA6
:101AC000AAC0EAF0A9C0E9F0EC6B640EEB6FB7ECCA
:101AD00000F01BBEF28E00C0D9F003C0DAF0D7C010
:101AE000DBF000C0DCF0F7EC03F0030ED76F63EC23
:101AF00001F05B50C80832E15C5230E11B6AF2BE73
:101B00001B8EF29EAAC0EAF0A9C0E9F0EC6B640E4D
:101B1000EB6FB7EC00F01BBEF28E02C0D8F001C034
:101B2000D7F01B6AF2BE1B8EF29EAAC0EAF0A9C0D3
:101B3000E9F0EC6B640EEB6FB7EC00F01BBEF28EBD
:101B400000C0D9F003C0DAF0D7C0DBF000C0DCF091
:101B5000F7EC03F0010ED76F63EC01F05B50D20895
:101B600004E15C5202E15C6A5B6AB15324E1CF2D6F
:101B700022D0D76B1EEC01F0D76B63EC01F0010EA5
:101B8000D76F95EC01F0AEC0E3F0640EE46F82EC29
:101B900003F001C0D7F0AEC0E3F0640EE46F82EC56
:101BA00003F000C0D8F0D7C0DBF000C0DCF0F7ECE9
:101BB00003F0010EAD6FB66BB96BBE6B350E006EE8
:101BC000002EFED7B1C0CFF0020ED86F0AEC01F0A4
:101BD000AFEF06F00300E824F76AF736F70FF66E6A
:101BE0001B0EF722000EF86EFB6E0A00F550FA6E1F
:101BF0000800F550F96EB80DDC0E6E11A8119C139B
:061C0000CA14BE18A4196D
:020000040030CA
:0C0000008CFF3FFF9FFFFFDFFFFFFFFFB3
:00000001FF
;PIC18F47Q10
;CRC=3D72  CREATED="02-déc.-25 09:13"
