:060000000000F4EF05F022
:08000800046ED8CF05F0E0CF33
:1000100006F00001E9CF0CF0EACF07F0E1CF08F0DD
:10002000E2CF09F0D9CF0AF0DACF0BF0F3CF12F01C
:10003000F4CF13F0FACF14F0F5CF15F0F6CF16F099
:10004000F7CF17F0F8CF18F0FBCF19F000C00EF083
:1000500001C00FF002C010F003C011F00E01BDABE3
:1000600035EF00F0C5BBD8EF00F0C0AB3BEF00F0C0
:10007000C8BB6DEF00F00EC000F00FC001F010C063
:1000800002F011C003F00CC0E9FF07C0EAFF078EC1
:1000900008C0E1FF09C0E2FF0AC0D9FF0BC0DAFFC8
:1000A00012C0F3FF13C0F4FF14C0FAFF15C0F5FF30
:1000B00016C0F6FF17C0F7FF18C0F8FF19C0FBFF06
:1000C000045006C0E0FF05C0D8FF10000E01C8A90B
:1000D000FED7996E000193EF00F00001036A4750CC
:1000E000300FE96E000E0320EA6E0E01C8ABFED79A
:1000F00098CFEFFF472A4750140818E1476A465245
:1001000015E1010E446E0001EA6BEA5113080DE39C
:10011000036AEA51300FE96E000E0320EA6EEFCF5A
:10012000EBF0EB51D3D7EA2BF0D70E01C89B0001BF
:100130003BEF00F072756E31000072756E32000098
:10014000636C72720000636C72670000636C726FA4
:100150000000636C72620000636C72670000616E85
:10016000696D313300003030303030300000016ACA
:10017000026A006A036AED5102E1EC5118E0100EC8
:10018000EE6FD890EA37EB3700360336ED51035C5B
:1001900002E1EC51005C07E3EC51005ED8A00306DD
:1001A000ED51035ED88001360236EE2FEAD71200F9
:1001B0000001D4A802D0630ED36EC00ED26E572CAD
:1001C00015D05D2AD8B45E2A5EC0EBF05DC0EAF0BF
:1001D000ED6B0A0EEC6FCBDF00C0EAF003C0EBF072
:1001E000EA5304E1EB5302E1010E586E562C03D0A2
:1001F0005B2AD8B45C2A592AD8B45A2A59506408C0
:1002000004E15A5202E15A6A596A0E01C59B000183
:100210003BEF00F0EA6AD90EE96EEF500EE0140EE3
:10022000016E006A002EFED7012EFBD7BF0E006EB6
:10023000002EFED700D0EF2EF2D71200D851FC0FBF
:1002400016E2040F38EF01F0889083908892839231
:100250000ED0889083808892839209D08890839072
:100260008892838204D0889083808892838212004F
:10027000E824F76AF736910FF66E020EF722000EA9
:10028000F86EFB6E0A00F550FA6E0800F550F96E34
:10029000480252025C0266020900F55213E0F6CFF2
:1002A000D9F0F7CFDAF0F8CFDBF0F5500E01C8AD9A
:1002B000FED7956FD9C0F6FFDAC0F7FFDBC0F8FFB5
:1002C0000001EAD71200D851000A07E0020A0DE047
:1002D000030A13E0020A19E020D0400EF66E010E68
:1002E000F76E000EF86ED8DF1FD0460EF66E010EC8
:1002F000F76E000EF86ED0DF17D04C0EF66E010EC2
:10030000F76E000EF86EC8DF0FD0520EF66E010EBB
:10031000F76E000EF86EC0DF07D0580EF66E010EB5
:10032000F76E000EF86EB8DF1200D82D08D0340E2C
:10033000F66E010EF76E000EF86EAEDF09D0D853E0
:1003400007E13A0EF66E010EF76E000EF86EA4DFAE
:100350001200D82D08D05E0EF66E010EF76E000E5C
:10036000F86E9ADF07D0660EF66E010EF76E000E7D
:10037000F86E92DF1200DA6BDA51070811E3036AB4
:10038000DA51480FE96E000E0320EA6EEFCFDBF082
:10039000DB510E01C8ADFED7956F0001DA2BECD70B
:1003A00012007E0E486E4968060E4A6E4B6E4C6A0D
:1003B0004D6AD8C04EF0EF0E4F6EDDDFF2EF01F068
:1003C0007E0E486E4968060E4A6E030E4B6E4C6AEE
:1003D0004D6AD8C04EF0EF0E4F6ECDDF1200140EF6
:1003E000D86FDFD7010ED86FEBDFA8EF06F0080E4D
:1003F000016E040E006E002EFED784968996040EC0
:10040000006E002EFED7DA378498D8B08988D8A03D
:10041000899889868EA6FED7012EEBD7040E006E32
:10042000002EFED78496899600008988040E006EFF
:10043000002EFED7040E006E002EFED789868EA6F3
:10044000FED7016A040E006E002EFED78EB8018022
:10045000849689968498899812008988040E006E83
:10046000002EFED78986040E006E002EFED78498DB
:100470008998040E006E002EFED784968996400E51
:10048000DA6FB5DFD8C0DAF0B2DFD9C0DAF0AFDFAB
:100490008998000089868EA6FED7040E006E002E75
:1004A000FED700D000008988040E006E002EFED713
:1004B0001200D86BD96BD1DF010ED86FD96FCDDFA9
:1004C0001200F7DF130ED86FD96BC7DF1200E953A4
:1004D0000DE089948484040E006E002EFED789946A
:1004E0008494020E006E002EFED70CD08994848472
:1004F00000D000D000D089948494040E006E002EA9
:10050000FED7000096EF02F0070EE76FE7BF10D0AE
:10051000E6C000F0E751016E04E0D8900032012EF1
:10052000FCD70050010BE86FE96FD1D7E707EED792
:100530001200E4C0E6F0E8DFE3C0E6F0E5DFE5C086
:10054000E6F0E2DFD1EF02F0010EE05F0BE3EA6AD2
:10055000E00EE96EEF5006E0040E006E002EFED7AE
:10056000EF2EFAD7D6EF02F0DF6BDE51DF5D1BE234
:10057000DF51D825E96E000ED921EA6EEFCFE3F006
:10058000DF51DA25E96E000EDB21EA6EEFCFE4F0F1
:10059000DF51DC25E96E000EDD21EA6EEFCFE5F0DC
:1005A000C8D7DF2BE2D73C0EE06FCED71200080E83
:1005B000016E040E006E002EFED784968996040EFE
:1005C000006E002EFED7DA378498D8B08988D8A07C
:1005D000899889868EA6FED7012EEBD7040E006E71
:1005E000002EFED78496899600008988040E006E3E
:1005F000002EFED7040E006E002EFED789868EA632
:10060000FED7016A040E006E002EFED78EB8018060
:10061000849689968498899812008988040E006EC1
:10062000002EFED78986040E006E002EFED7849819
:100630008998040E006E002EFED784968996480E87
:10064000DA6FB5DFD8C0DAF0B2DFD9C0DAF0AFDFE9
:100650008998000089868EA6FED7040E006E002EB3
:10066000FED700D000008988040E006E002EFED751
:100670001200D86B010ED96FD0DF010ED86FD96F81
:10068000CCDF1200F6DF549E130ED86F54C0D9F0A1
:10069000C4DF1200EEDF549C130ED86F54C0D9F0A3
:1006A000BCDF1200E6DF549A130ED86F54C0D9F0A5
:1006B000B4DF1200DEDF5498130ED86F54C0D9F0A7
:1006C000ACDF1200D6DF5496130ED86F54C0D9F0A9
:1006D000A4DF1200CEDF5494130ED86F54C0D9F0AB
:1006E0009CDF1200C6DF559C120ED86F55C0D9F0A2
:1006F00094DF1200BEDF559E120ED86F55C0D9F0A0
:100700008CDF1200E551016AE45D03E2E4C000F011
:100710000CD0006A080EE66FE4370036E551005C45
:10072000D8B0006E0136E62FF7D71200200EDFA9F1
:10073000300EE06FDEC000F0DEAF08D0001E002AF1
:1007400000C0DEF02D0EE06FDF8FDF810150DEC0D4
:10075000E4F0640EE56FD6DF00C0DEF0300E012459
:10076000E16FDEC0E4F00A0EE56FCCDF300E00244E
:10077000E36F300E0124E26FE0C000F0300EE15D67
:1007800004E0DF83DFBFDF8512D0DFB510D0E0C02B
:10079000E1F0DFB304D0300EE25D04E0DF81DFBFC3
:1007A000DF8305D0D8A4DF81D8B4E1C0E2F0DFB5A3
:1007B00005D0DFB309D0DFB10DD012D0E0510E016A
:1007C000C8ADFED7956F0001E1510E01C8ADFED74F
:1007D000956F0001E2510E01C8ADFED7956F000183
:1007E000E3510E01C8ADFED7956F00011200DC5138
:1007F000630802E2630EDC6FDD51630802E2630E00
:10080000DD6FDCC0DEF0010EDF6F90DFDDC0DEF0FB
:10081000010EDF6F8BDF1200DA51DC03F3CF01F042
:10082000F4CF00F0DD03F3500026DB51DC03F3507E
:100830000020026E1200EACFE5F0E9CFE4F0DE39E5
:10084000F009E06FE027E20FE16F320FE36FDE5156
:100850000F0BE127E127E327E90FE26FE227E22709
:10086000DD390F0BE227E327E237E337E31FE337F6
:10087000DD510F0BE327E037070EDF6F0A0EE207AB
:10088000E327FDE3E107E227FDE3E007E127FDE3DE
:10089000DF07E027FDE3EA6ADF0EE96E070EE415E5
:1008A000E49DE926000EEA22E950E30803E1EA525A
:1008B00001E1E48DEF50006E08E1E4BD06D0E4B93B
:1008C0000ED0E4B702D0200E03D0E487E499300EB6
:1008D000002600500E01C8A9FED7996E0001EE5007
:1008E000E4ADE2D71200200EDEA9300EDF6FDDC0CE
:1008F00000F0DDAF08D0001E002A00C0DDF02D0E94
:10090000DF6FDE8FDE810150DDC0E4F0640EE56F45
:10091000F9DE00C0DDF0300E0124E06FDDC0E4F050
:100920000A0EE56FEFDE300E0024E26F300E012478
:10093000E16FDFC000F0300EE05D04E0DE83DEBF7B
:10094000DE8512D0DEB510D0DFC0E0F0DEB304D01B
:10095000300EE15D04E0DE81DEBFDE8305D0D8A489
:10096000DE81D8B4E0C0E1F0DEB505D0DEB309D059
:10097000DEB10DD012D0DF510E01C8A9FED7996E9D
:100980000001E0510E01C8A9FED7996E0001E151A6
:100990000E01C8A9FED7996E0001E2510E01C8A947
:1009A000FED7996E0001E7EF04F0090EE96ED9C099
:1009B000DEF0D8C0DDF03FDF2C0E0E01C8A9FED757
:1009C000996EDAC0DDF0010E0001DE6F8CD72C0EBF
:1009D0000E01C8A9FED7996E090EE96EDCC0DEF0E3
:1009E000DBC0DDF0000127DF12007E0E486E496893
:1009F000060E4A6E010E4B6E4C6A4D6A4E6AEF0E41
:100A00004F6EB9DCCFEF08F0200EDFA9300EE06F9B
:100A1000DEC000F0DEAF08D0001E002A00C0DEF00D
:100A20002D0EE06FDF8FDF810150DEC0E4F0640E39
:100A3000E56F68DE00C0DEF0300E0124E16FDEC03D
:100A4000E4F00A0EE56F5EDE300E0024E36F300E38
:100A50000124E26FE0C000F0300EE15D04E0DF83CE
:100A6000DFBFDF8512D0E0C0E1F0200EE06F300E76
:100A7000E25D04E0DF81DFBFDF8307D0D8A4DF8140
:100A800004E1E1C0E2F0200EE16FDFB505D0DFB395
:100A900009D0DFB10DD012D0E0510E01C8ADFED7A4
:100AA000956F0001E1510E01C8ADFED7956F0001B1
:100AB000E2510E01C8ADFED7956F0001E3510E0162
:100AC000C8ADFED7956F00011200D8C0DEF0180E39
:100AD000DF6F9ADFD9C0DEF0180EDF6F95DFDAC066
:100AE000DEF0180EDF6F90DFDBC0DEF0180EDF6F78
:100AF0008BDFDC510E01C8ADFED7956FDDC0DEF097
:100B0000180E0001DF6F80DF1200D82D06D0310EE5
:100B10000E01C8ADFED7956F0001D85306E1300E27
:100B20000E01C8ADFED7956F00011200A2DD548200
:100B3000130ED86F54C0D9F070DD12009ADD558EB7
:100B4000120ED86F55C0D9F068DD1200B2DC130E5A
:100B5000D86FEF0ED96F81DC12008BDD5492130E2B
:100B6000D86F54C0D9F059DDC1EF0AF082DD548846
:100B7000130ED86F54C0D9F050DDC5EF0AF079DDFF
:100B8000548E130ED86F54C0D9F047DD120071DDBA
:100B9000548C130ED86F54C0D9F03FDDD7EF0AF054
:100BA00068DD548A130ED86F54C0D9F036DDD9EF02
:100BB0000AF05FDD5484130ED86F54C0D9F02DDDD8
:100BC000EAEF0AF056DD5486130ED86F54C0D9F000
:100BD00024DD46EF0BF04DDD558C120ED86F55C05D
:100BE000D9F01BDD52EF0BF0F86AF29A078E0E0176
:100BF000550E9B6FAA0E9B6F9B91110EB06F0A0E44
:100C0000886F0B0EEE6F090EF26F550E9B6FAA0EDA
:100C10009B6F9B819E86820E9A6E060E9B6EA60E21
:100C20009D6E900E9C6E446A456A466A476A9A8732
:100C3000820E966F060E976FA60E996F900E986FA4
:100C4000516A536A526A546A556A566A576A586AB0
:100C50005A6A596A5C6A5B6A5E6A5D6A0F010C6B6C
:100C6000146B1C6B216B296B356B366B376B346BDC
:100C7000316B326B336B306B080E0001D86FFA0E9C
:100C8000D96F0AEC01F0D82FFAD70E01C08BC00E35
:100C9000F2120001A86BA76BAA6BA96BAC6BAB6BD4
:100CA000AD6BAE6B010EAF6F720EB06F670EB16FB2
:100CB000B26BB36BB46BB56BB66BB76BB86BB96B30
:100CC000BA6BBB6BBC6BBE6BBD6BBF6BC06BC16BE0
:100CD000C26BC36BC46BC56BC66BC76BC86BC96B90
:100CE000CA6BCB6BCC6BCD6BCE6BCF6BD06B900EDE
:100CF000D46E420ED56ED4A802D0630ED36EC00E51
:100D0000D26E0E01BD8BF2120001D86B1EEC01F009
:100D1000D86B63EC01F0010ED86F95EC01F0050E75
:100D2000D96F0AEC01F0010ED86F1EEC01F0050E30
:100D3000D96F0AEC01F0D86BA9EC01F0050ED96F60
:100D40000AEC01F0020ED86F1EEC01F0EFEF01F09B
:100D5000050ED96F0AEC01F0010ED86FE0EC01F03E
:100D6000050ED96F0AEC01F059EC02F061EC02F0CB
:100D7000050ED96F0AEC01F08390889083928892D7
:100D8000010EAD6F898AB26B8EBAB22B898EB36BAE
:100D90008EBEB32B8A86B46B8FB6B42B8A82B56BAA
:100DA0008FB2B52B8788B66B8CB8B62B8A84B86B9C
:100DB0008FB4B82B8786B96B8CB6B92B8A80BB6B86
:100DC0008FB0BB2B878ABC6B8CBABC2B010EAD5D80
:100DD000F80FD8B002EF0EF0080F0FEF0EF0B46B63
:100DE000D16BD15117081AE3036AD1515F0FE96E35
:100DF000000E0320EA6EEF6A036AD151770FE96EA5
:100E0000000E0320EA6EEF6A036AD1518F0FE96E7C
:100E1000000E0320EA6EEF6AD12BE3D7D96B5F0E89
:100E2000D86FDB6B770EDA6FDD6B8F0EDC6F180E11
:100E3000DE6FB4EC02F059EC02F061EC02F019DC68
:100E400021DC28DC2FDC36DC3DDC44DC4BDC52DCF6
:100E5000020ED86F1EEC01F0010ED86FE0EC01F02D
:100E6000050ED96F0AEC01F0576A5E6A5D6A566A30
:100E70005C6A5B6A476A456A446A466AC06BC16BD2
:100E8000C26BC36BC46BC56BC66BC76BBE6BBD6BF4
:100E9000A86BA76BAA6BA96BAC6BAB6B050ED96F7C
:100EA0000AEC01F0D86B1EEC01F0AEC0DCF0AEC075
:100EB000DDF09DDCD86B63EC01F0010ED86F95EC92
:100EC00001F0080ED86FFA0ED96F0AEC01F0D82F96
:100ED000FAD7010ED86F1EEC01F0050ED96F0AEC9F
:100EE00001F0010ED86FA9EC01F0040ED86FFA0ED4
:100EF000D96F0AEC01F0D82FFAD7020EAD6F02EFCE
:100F00000EF0010E566EB353D8A48DD0B253D8A4B0
:100F100089D0D02D87D0D26BD25117081AE3036A3B
:100F2000D2515F0FE96E000E0320EA6EEF68036A8C
:100F3000D251770FE96E000E0320EA6EEF6A036A62
:100F4000D2518F0FE96E000E0320EA6EEF6AD22BAA
:100F5000E3D7D96B5F0ED86FDB6B770EDA6FDD6B83
:100F60008F0EDC6F180EDE6FB4EC02F0300E305CCA
:100F7000D96FDB6BDA6F030EDD6FE80EDC6F4CDCD4
:100F800002C0D9F001C0D8F0300E315C640DF350CE
:100F9000D827000ED923300E325C0A0DF350D82723
:100FA000000ED9233350D827000ED923300ED85D38
:100FB000BD6F000ED959BE6FC06BC16B010EC26F01
:100FC000C36FC46FC56FC66FC76F466ED86F1EEC18
:100FD00001F0D86BA9EC01F0050ED96F0AEC01F015
:100FE000040ED96F570ED86F010EDA6FDC6BDB6B16
:100FF000DCDC5C6A5B6A566A040ED86FFA0ED96F45
:101000000AEC01F0D82FFAD7020ED86F1EEC01F0CF
:10101000040ED86FFA0ED96F0AEC01F0D82FFAD768
:10102000030EAD6FB5D0B253D8A4B2D0D02DB0D08E
:10103000442CAED0D36BD35117081AE3036AD351B3
:101040005F0FE96E000E0320EA6EEF68036AD3516A
:10105000770FE96E000E0320EA6EEF6A036AD35140
:101060008F0FE96E000E0320EA6EEF6AD32BE3D7F1
:10107000D96B5F0ED86FDB6B770EDA6FDD6B8F0E7F
:10108000DC6F180EDE6FB4EC02F0300E305CD96FFE
:10109000DB6BDA6F030EDD6FE80EDC6F0CEC04F037
:1010A00002C0D9F001C0D8F0300E315C640DF350AD
:1010B000D827000ED923300E325C0A0DF350D82702
:1010C000000ED9233350D827000ED923300ED85D17
:1010D000BD6F000ED959BE6F300E355CC86F300E33
:1010E000375CC96F300E395CCA6F300E3B5CCB6F1A
:1010F000300E3D5CCC6F300E3F5CCD6F300E415CEE
:10110000CE6F300E435CCF6FC951C825CA25CB25A1
:10111000CC25CD25CE25CF25BF6FBF5302E0010ED4
:10112000C06FBF51010804E2010EC26FC36FC46FEC
:10113000BF51020802E2010EC16FBF51030802E273
:10114000010EC56F010E466ED86F1EEC01F0D86B14
:10115000A9EC01F0050ED96F0AEC01F0040ED96F6D
:10116000570ED86F010EDA6FDC6BDB6B1EDC5C6A2E
:101170005B6A566A020ED86F1EEC01F0040ED86F3F
:10118000FA0ED96F0AEC01F0D82FFAD7030EAD6F23
:1011900002EF0EF0020ED86F1EEC01F026D4050E01
:1011A000D96F0AEC01F0010ED86F1EEC01F0010EB0
:1011B000D86FD96BDA6BDB6BB0C0DCF0030EDD6F80
:1011C00084DC5C6A5B6A040EAD6F02EF0EF0010E08
:1011D000566E5B5064080CE15C520AE1010ED86F58
:1011E000D96FDA6BDB6BB0C0DCF0030EDD6F6DDC4A
:1011F0005B50C8080CE15C520AE1010ED86FD96F50
:10120000DA6FDB6BB0C0DCF0030EDD6F5EDC5B50D1
:101210002C080CE15C2C0AD0010ED86FD96FDA6F64
:10122000DB6FB0C0DCF0030EDD6F4FDC5B5090086D
:1012300044E15C2C42D0010ED86FD96FDA6FDB6FBE
:10124000B1C0DCF0030EDD6F40DCD46BD451170865
:101250001AE3036AD4515F0FE96E000E0320EA6EB1
:10126000EF6A036AD451770FE96E000E0320EA6E2D
:10127000EF68036AD4518F0FE96E000E0320EA6E07
:10128000EF6AD42BE3D7D96B5F0ED86FDB6B770E89
:10129000DA6FDD6B8F0EDC6F180EDE6FB4EC02F0D0
:1012A000050ED96F0AEC01F05E6A5D6A010E576E99
:1012B0005C6A5B6A566A050EAD6FB253D8A484D0DF
:1012C000D02D82D039EC03F0050ED96F0AEC01F075
:1012D000030ED86F1EEC01F0010ED86F16DCAF2D97
:1012E00003D039EC03F022DC050ED96F0AEC01F0D3
:1012F000C52D03D039EC03F021DC59EC02F026DCDB
:10130000BEC0D9F0BDC0D8F0020EDA6FDC6BDB6B6B
:10131000D5EC04F0050ED96F0AEC01F0020ED86F7F
:101320001EEC01F0030ED86FE0EC01F0050ED96F52
:101330000AEC01F0566A5C6A5B6A010E576E5E6ADF
:10134000C80E5D6E010ED86F1EEC01F0010ED86F55
:10135000D96FDA6FDB6FB1C0DCF0030EDD6F65ECC7
:1013600005F0D56BD55117081AE3036AD5515F0F05
:10137000E96E000E0320EA6EEF6A036AD551770F1B
:10138000E96E000E0320EA6EEF68036AD5518F0FF5
:10139000E96E000E0320EA6EEF6AD52BE3D7D96B16
:1013A0005F0ED86FDB6B770EDA6FDD6B8F0EDC6F45
:1013B000180EDE6FB4EC02F0050ED96F0AEC01F0E6
:1013C0005C6A5B6A060EAD6F02EF0EF0B25361E12C
:1013D000D02D5FD0D66BD65117081AE3036AD651C9
:1013E0005F0FE96E000E0320EA6EEF6A036AD651C2
:1013F000770FE96E000E0320EA6EEF6A036AD6519A
:101400008F0FE96E000E0320EA6EEF68D62BE3D74C
:10141000D96B5F0ED86FDB6B770EDA6FDD6B8F0EDB
:10142000DC6F180EDE6FB4EC02F0050ED96F0AEC1B
:1014300001F0030ED86F1EEC01F0010ED86F85ECA1
:1014400005F0AF2D04D039EC03F096EC05F0050E55
:10145000D96F0AEC01F05EC0ACF05DC0ABF0BEC06D
:10146000D9F0BDC0D8F0020EDA6FACC0DCF0ABC072
:10147000DBF0D5EC04F059EC02F0A6EC05F039EC09
:1014800003F0C52D04D039EC03F09EEC05F0060EF8
:10149000AD6F582C37D0D86B1EEC01F0586AD86B62
:1014A00063EC01F0010ED86F95EC01F01B6AF2BEFF
:1014B0001B8EF29E5EC0EBF05DC0EAF0ED6B640E39
:1014C000EC6FB7EC00F01BBEF28E02C0D9F001C089
:1014D000D8F01B6AF2BE1B8EF29E5EC0EBF05DC0C0
:1014E000EAF0ED6B640EEC6FB7EC00F01BBEF28E11
:1014F00000C0DAF003C0DBF0D8C0DCF000C0DDF0E3
:10150000F7EC03F07FD3D76BD75117081AE3036AC0
:10151000D7515F0FE96E000E0320EA6EEF6A036A8F
:10152000D751770FE96E000E0320EA6EEF6A036A67
:10153000D7518F0FE96E000E0320EA6EEF6AD72BAA
:10154000E3D7D96B5F0ED86FDB6B770EDA6FDD6B8D
:101550008F0EDC6F180EDE6FB4EC02F039EC03F086
:10156000B52D86D0B653D8A483D0010EB76F39EC11
:1015700003F07AEC03F0AF2D04D039EC03F0ADEFBB
:1015800005F0C22D02D0B6EF05F0C02D08D0C12D58
:1015900006D0BFEC05F04AEC03F052EC03F0C05368
:1015A00008E1C15306E1BFEC05F0C7EF05F0D0EF4D
:1015B00005F0C05303E1C12D01D004D0C02D08D0E7
:1015C000C15306E142EC03F04AEC03F052EC03F0A5
:1015D000D9EF05F05EC0A8F05DC0A7F0D86B1EEC97
:1015E00001F0020ED86F63EC01F0D86B95EC01F0BE
:1015F0001B6AF2BE1B8EF29EA8C0EBF0A7C0EAF0F9
:10160000ED6B640EEC6FB7EC00F01BBEF28E02C007
:10161000D9F001C0D8F01B6AF2BE1B8EF29EA8C0A2
:10162000EBF0A7C0EAF0ED6B640EEC6FB7EC00F0E6
:101630001BBEF28E00C0DAF003C0DBF0D8C0DCF0D5
:1016400000C0DDF0F7EC03F0050ED96F0AEC01F0F5
:10165000BEC0D9F0BDC0D8F0040EDA6FA8C0DCF06F
:10166000A7C0DBF0D5EC04F05C6A5B6A070EAD6FD7
:10167000B82D67D0B95365E1B72D63D0010EBA6FAD
:101680005AEC03F0C32D02D0E2EF05F039EC03F081
:1016900042EC03F04AEC03F052EC03F06AEC03F086
:1016A000EBEF05F05EC0A8F05DC0A7F0D86B1EECB4
:1016B00001F0020ED86F63EC01F0D86B95EC01F0ED
:1016C0001B6AF2BE1B8EF29EA8C0EBF0A7C0EAF028
:1016D000ED6B640EEC6FB7EC00F01BBEF28E02C037
:1016E000D9F001C0D8F01B6AF2BE1B8EF29EA8C0D2
:1016F000EBF0A7C0EAF0ED6B640EEC6FB7EC00F016
:101700001BBEF28E00C0DAF003C0DBF0D8C0DCF004
:1017100000C0DDF0F7EC03F0050ED96F0AEC01F024
:10172000BEC0D9F0BDC0D8F0050EDA6FA8C0DCF09D
:10173000A7C0DBF0D5EC04F05C6A5B6A070EAD6F06
:10174000E1D0BB2D63D0BC5361E1B72D5FD0BA2D82
:101750005DD062EC03F05EC0AAF05DC0A9F039EC88
:1017600003F072EC03F0020ED86F1EEC01F0040ED1
:10177000D86FE0EC01F0050ED96F0AEC01F0D86BE0
:101780001EEC01F0D86B95EC01F01B6AF2BE1B8ECB
:10179000F29EAAC0EBF0A9C0EAF0ED6B640EEC6F0C
:1017A000B7EC00F01BBEF28E02C0D9F001C0D8F039
:1017B0001B6AF2BE1B8EF29EAAC0EBF0A9C0EAF033
:1017C000ED6B640EEC6FB7EC00F01BBEF28E00C048
:1017D000DAF003C0DBF0D8C0DCF000C0DDF0F7ECDD
:1017E00003F0050ED96F0AEC01F05C6A5B6ABEC0BB
:1017F000D9F0BDC0D8F0060EDA6FAAC0DCF0A9C0DF
:10180000DBF0D5EC04F0080EAD6F7CD0582C39D04D
:10181000D86B1EEC01F0586A030ED86F63EC01F030
:10182000010ED86F95EC01F01B6AF2BE1B8EF29E82
:101830005EC0EBF05DC0EAF0ED6B640EEC6FB7ECF0
:1018400000F01BBEF28E02C0D9F001C0D8F01B6AB6
:10185000F2BE1B8EF29E5EC0EBF05DC0EAF0ED6B57
:10186000640EEC6FB7EC00F01BBEF28E00C0DAF035
:1018700003C0DBF0D8C0DCF000C0DDF0F7EC03F013
:1018800041D05E5026083EE2FF0A03E15D500D089C
:1018900039E272EC03F0010ED86F1EEC01F0010E7C
:1018A000D86FD96FDA6FDB6FB0C0DCF0030EDD6F7D
:1018B00065EC05F0050ED96F0AEC01F0020ED86F49
:1018C0001EEC01F0040ED86FE0EC01F0050ED96FAC
:1018D0000AEC01F0270EAA6F0F0EA96FD86B1EEC51
:1018E00001F0D86B63EC01F0D86B95EC01F0630E5E
:1018F000DC6FDD6FF7EC03F0050ED96F0AEC01F039
:10190000080EAD6F7FD1010E566E5B50C80805E121
:101910005C5203E1566A060EAD6F5E50260865E222
:10192000FF0A03E15D500E0860E272EC03F0010E65
:10193000D86F1EEC01F0010ED86FD96FDA6FDB6F34
:10194000B0C0DCF0030EDD6F65EC05F0050ED96F5D
:101950000AEC01F0020ED86F1EEC01F0030ED86FF6
:10196000E0EC01F0050ED96F0AEC01F05EC0AAF0C0
:101970005DC0A9F0D86B1EEC01F0D86B63EC01F0F0
:10198000D86B95EC01F01B6AF2BE1B8EF29EAAC0CA
:10199000EBF0A9C0EAF0ED6B640EEC6FB7EC00F071
:1019A0001BBEF28E02C0D9F001C0D8F01B6AF2BE95
:1019B0001B8EF29EAAC0EBF0A9C0EAF0ED6B640E9C
:1019C000EC6FB7EC00F01BBEF28E00C0DAF003C083
:1019D000DBF0D8C0DCF000C0DDF0F7EC03F0050E62
:1019E000D96F0AEC01F0080EAD6F0CD1010E566EE6
:1019F000050ED96F0AEC01F0D86B1EEC01F05B50BC
:101A0000320831E15C522FE11B6AF2BE1B8EF29E5E
:101A1000AAC0EBF0A9C0EAF0ED6B640EEC6FB7EC76
:101A200000F01BBEF28E02C0D9F001C0D8F01B6AD4
:101A3000F2BE1B8EF29EAAC0EBF0A9C0EAF0ED6BDD
:101A4000640EEC6FB7EC00F01BBEF28E00C0DAF053
:101A500003C0DBF0D8C0DCF000C0DDF0F7EC03F031
:101A6000D86B63EC01F05B50640832E15C5230E10A
:101A70001B6AF2BE1B8EF29EAAC0EBF0A9C0EAF070
:101A8000ED6B640EEC6FB7EC00F01BBEF28E02C083
:101A9000D9F001C0D8F01B6AF2BE1B8EF29EAAC01C
:101AA000EBF0A9C0EAF0ED6B640EEC6FB7EC00F060
:101AB0001BBEF28E00C0DAF003C0DBF0D8C0DCF051
:101AC00000C0DDF0F7EC03F0020ED86F63EC01F01C
:101AD0005B50960832E15C5230E11B6AF2BE1B8E0D
:101AE000F29EAAC0EBF0A9C0EAF0ED6B640EEC6FB9
:101AF000B7EC00F01BBEF28E02C0D9F001C0D8F0E6
:101B00001B6AF2BE1B8EF29EAAC0EBF0A9C0EAF0DF
:101B1000ED6B640EEC6FB7EC00F01BBEF28E00C0F4
:101B2000DAF003C0DBF0D8C0DCF000C0DDF0F7EC89
:101B300003F0030ED86F63EC01F05B50C80832E18C
:101B40005C5230E11B6AF2BE1B8EF29EAAC0EBF023
:101B5000A9C0EAF0ED6B640EEC6FB7EC00F01BBEB1
:101B6000F28E02C0D9F001C0D8F01B6AF2BE1B8E03
:101B7000F29EAAC0EBF0A9C0EAF0ED6B640EEC6F28
:101B8000B7EC00F01BBEF28E00C0DAF003C0DBF051
:101B9000D8C0DCF000C0DDF0F7EC03F0010ED86F28
:101BA00063EC01F05B50D20804E15C5202E15C6A34
:101BB0005B6AB25324E1D02D22D0D86B1EEC01F029
:101BC000D86B63EC01F0010ED86F95EC01F0AEC05C
:101BD000E4F0640EE56F82EC03F001C0D8F0AEC013
:101BE000E4F0640EE56F82EC03F000C0D9F0D8C0D9
:101BF000DCF000C0DDF0F7EC03F0010EAD6FB76B69
:101C0000BA6BBF6B350E006E002EFED7B2C0D0F09F
:101C1000020ED96F0AEC01F0C2EF06F00300E824CF
:101C2000F76AF7363F0FF66E1C0EF722000EF86EBD
:101C3000FB6E0A00F550FA6E0800F550F96EDE0DE5
:0E1C4000020F9411CE11CC1306150619EC19E3
:020000040030CA
:0C0000008CFF3FFF9FFFFFDFFFFFFFFFB3
:00000001FF
;PIC18F47Q10
;CRC=0443  CREATED="27-févr.-26 08:59"
