:060000000000E4EF05F032
:08000800046ED8CF05F0E0CF33
:1000100006F00001E9CF0CF0EACF07F0E1CF08F0DD
:10002000E2CF09F0D9CF0AF0DACF0BF0F3CF12F01C
:10003000F4CF13F0FACF14F0F5CF15F0F6CF16F099
:10004000F7CF17F0F8CF18F0FBCF19F000C00EF083
:1000500001C00FF002C010F003C011F00E01BDABE3
:1000600035EF00F0C5BBD8EF00F0C0AB3BEF00F0C0
:10007000C8BB6DEF00F00EC000F00FC001F010C063
:1000800002F011C003F00CC0E9FF07C0EAFF078EC1
:1000900008C0E1FF09C0E2FF0AC0D9FF0BC0DAFFC8
:1000A00012C0F3FF13C0F4FF14C0FAFF15C0F5FF30
:1000B00016C0F6FF17C0F7FF18C0F8FF19C0FBFF06
:1000C000045006C0E0FF05C0D8FF10000E01C8A90B
:1000D000FED7996E000193EF00F00001036A4750CC
:1000E000300FE96E000E0320EA6E0E01C8ABFED79A
:1000F00098CFEFFF472A4750140818E1476A465245
:1001000015E1010E446E0001DB6BDB5113080DE3BA
:10011000036ADB51300FE96E000E0320EA6EEFCF69
:10012000DCF0DC51D3D7DB2BF0D70E01C89B0001EC
:100130003BEF00F072756E31000072756E32000098
:10014000636C72720000636C72670000636C726FA4
:100150000000636C72620000636C72670000616E85
:10016000696D313300003030303030300000016ACA
:10017000026A006A036ADE5102E1DD5118E0100EE6
:10018000DF6FD890DB37DC3700360336DE51035C97
:1001900002E1DD51005C07E3DD51005ED8A00306FB
:1001A000DE51035ED88001360236DF2FEAD7120017
:1001B0000001D4A802D0630ED36EC00ED26E572CAD
:1001C00015D05D2AD8B45E2A5EC0DCF05DC0DBF0DD
:1001D000DE6B0A0EDD6FCBDF00C0DBF003C0DCF0AE
:1001E000DB5304E1DC5302E1010E586E562C03D0C0
:1001F0005B2AD8B45C2A592AD8B45A2A59506408C0
:1002000004E15A5202E15A6A596A0E01C59B000183
:100210003BEF00F0EA6ACA0EE96EEF500EE0140EF2
:10022000016E006A002EFED7012EFBD7BF0E006EB6
:10023000002EFED700D0EF2EF2D71200C951FC0FCE
:1002400016E2040F38EF01F0889083908892839231
:100250000ED0889083808892839209D08890839072
:100260008892838204D0889083808892838212004F
:10027000E824F76AF736910FF66E020EF722000EA9
:10028000F86EFB6E0A00F550FA6E0800F550F96E34
:10029000480252025C0266020900F55213E0F6CFF2
:1002A000CAF0F7CFCBF0F8CFCCF0F5500E01C8ADC7
:1002B000FED7956FCAC0F6FFCBC0F7FFCCC0F8FFE2
:1002C0000001EAD71200C951000A07E0020A0DE056
:1002D000030A13E0020A19E020D0400EF66E010E68
:1002E000F76E000EF86ED8DF1FD0460EF66E010EC8
:1002F000F76E000EF86ED0DF17D04C0EF66E010EC2
:10030000F76E000EF86EC8DF0FD0520EF66E010EBB
:10031000F76E000EF86EC0DF07D0580EF66E010EB5
:10032000F76E000EF86EB8DF1200C92D08D0340E3B
:10033000F66E010EF76E000EF86EAEDF09D0C953EF
:1003400007E13A0EF66E010EF76E000EF86EA4DFAE
:100350001200C92D08D05E0EF66E010EF76E000E6B
:10036000F86E9ADF07D0660EF66E010EF76E000E7D
:10037000F86E92DF1200CB6BCB51070811E3036AD2
:10038000CB51480FE96E000E0320EA6EEFCFCCF0A0
:10039000CC510E01C8ADFED7956F0001CB2BECD729
:1003A00012007E0E486E4968060E4A6E4B6E4C6A0D
:1003B0004D6AC9C04EF0EF0E4F6EDDDFF2EF01F077
:1003C0007E0E486E4968060E4A6E030E4B6E4C6AEE
:1003D0004D6AC9C04EF0EF0E4F6ECDDF1200140E05
:1003E000C96FDFD7010EC96FEBDF89EF06F0080E8A
:1003F000016E040E006E002EFED784968996040EC0
:10040000006E002EFED7CB378498D8B08988D8A04C
:10041000899889868EA6FED7012EEBD7040E006E32
:10042000002EFED78496899600008988040E006EFF
:10043000002EFED7040E006E002EFED789868EA6F3
:10044000FED7016A040E006E002EFED78EB8018022
:10045000849689968498899812008988040E006E83
:10046000002EFED78986040E006E002EFED78498DB
:100470008998040E006E002EFED784968996400E51
:10048000CB6FB5DFC9C0CBF0B2DFCAC0CBF0AFDFF6
:100490008998000089868EA6FED7040E006E002E75
:1004A000FED700D000008988040E006E002EFED713
:1004B0001200C96BCA6BD1DF010EC96FCA6FCDDFE5
:1004C0001200F7DF130EC96FCA6BC7DF1200DA53D1
:1004D0000DE089948484040E006E002EFED789946A
:1004E0008494020E006E002EFED70CD08994848472
:1004F00000D000D000D089948494040E006E002EA9
:10050000FED7000096EF02F0070ED86FD8BF10D0CC
:10051000D7C000F0D851016E04E0D8900032012E0F
:10052000FCD70050010BD96FDA6FD1D7D807EED7BF
:100530001200D5C0D7F0E8DFD4C0D7F0E5DFD6C0D1
:10054000D7F0E2DFD1EF02F0010ED15F0BE3EA6AF0
:10055000D10EE96EEF5006E0040E006E002EFED7BD
:10056000EF2EFAD7D6EF02F0D06BCF51D05D1BE261
:10057000D051C925E96E000ECA21EA6EEFCFD4F042
:10058000D051CB25E96E000ECC21EA6EEFCFD5F02D
:10059000D051CD25E96E000ECE21EA6EEFCFD6F018
:1005A000C8D7D02BE2D73C0ED16FCED71200080EA1
:1005B000016E040E006E002EFED784968996040EFE
:1005C000006E002EFED7CB378498D8B08988D8A08B
:1005D000899889868EA6FED7012EEBD7040E006E71
:1005E000002EFED78496899600008988040E006E3E
:1005F000002EFED7040E006E002EFED789868EA632
:10060000FED7016A040E006E002EFED78EB8018060
:10061000849689968498899812008988040E006EC1
:10062000002EFED78986040E006E002EFED7849819
:100630008998040E006E002EFED784968996480E87
:10064000CB6FB5DFC9C0CBF0B2DFCAC0CBF0AFDF34
:100650008998000089868EA6FED7040E006E002EB3
:10066000FED700D000008988040E006E002EFED751
:100670001200C96B010ECA6FD0DF010EC96FCA6FBD
:10068000CCDF1200F6DF549E130EC96F54C0CAF0BF
:10069000C4DF1200EEDF549C130EC96F54C0CAF0C1
:1006A000BCDF1200E6DF549A130EC96F54C0CAF0C3
:1006B000B4DF1200DEDF5498130EC96F54C0CAF0C5
:1006C000ACDF1200D6DF5496130EC96F54C0CAF0C7
:1006D000A4DF1200CEDF5494130EC96F54C0CAF0C9
:1006E0009CDF1200C6DF5492130EC96F54C0CAF0CB
:1006F00094DF1200BEDF559E120EC96F55C0CAF0BE
:100700008CDF1200D651016AD55D03E2D5C000F03E
:100710000CD0006A080ED76FD5370036D651005C72
:10072000D8B0006E0136D72FF7D71200200ED0A90F
:10073000300ED16FCFC000F0CFAF08D0001E002A1E
:1007400000C0CFF02D0ED16FD08FD0810150CFC01F
:10075000D5F0640ED66FD6DF00C0CFF0300E012486
:10076000D26FCFC0D5F00A0ED66FCCDF300E00248A
:10077000D46F300E0124D36FD1C000F0300ED25DA3
:1007800004E0D083D0BFD08512D0D0B510D0D1C076
:10079000D2F0D0B304D0300ED35D04E0D081D0BF0E
:1007A000D08305D0D8A4D081D8B4D2C0D3F0D0B5EE
:1007B00005D0D0B309D0D0B10DD012D0D1510E0197
:1007C000C8ADFED7956F0001D2510E01C8ADFED75E
:1007D000956F0001D3510E01C8ADFED7956F000192
:1007E000D4510E01C8ADFED7956F00011200CD5156
:1007F000630802E2630ECD6FCE51630802E2630E1E
:10080000CE6FCDC0CFF0010ED06F90DFCEC0CFF055
:10081000010ED06F8BDF1200CB51CD03F3CF01F06F
:10082000F4CF00F0CE03F3500026CC51CD03F350AB
:100830000020026E69EF07F0EACFD6F0E9CFD5F0DD
:10084000CF39F009D16FD127E20FD26F320FD46FB9
:10085000CF510F0BD227D227D427E90FD36FD3273D
:10086000D327CE390F0BD327D427D337D437D41F70
:10087000D437CE510F0BD427D137070ED06F0A0EC5
:10088000D307D427FDE3D207D327FDE3D107D2272F
:10089000FDE3D007D127FDE3EA6AD00EE96E070E2B
:1008A000D515D59DE926000EEA22E950D40803E1CA
:1008B000EA5201E1D58DEF50006E08E1D5BD06D0BA
:1008C000D5B90ED0D5B702D0200E03D0D587D59993
:1008D000300E002600500E01C8A9FED7996E000107
:1008E000EE50D5ADE2D71200200ECFA9300ED06F5A
:1008F000CEC000F0CEAF08D0001E002A00C0CEF05F
:100900002D0ED06FCF8FCF810150CEC0D5F0640EA9
:10091000D66FF8DE00C0CEF0300E0124D16FCEC00D
:10092000D5F00A0ED66FEEDE300E0024D36F300EF7
:100930000124D26FD0C000F0300ED15D04E0CF832F
:10094000CFBFCF8512D0CFB510D0D0C0D1F0CFB3AC
:1009500004D0300ED25D04E0CF81CFBFCF8305D06D
:10096000D8A4CF81D8B4D1C0D2F0CFB505D0CFB301
:1009700009D0CFB10DD012D0D0510E01C8A9FED7E9
:10098000996E0001D1510E01C8A9FED7996E0001E0
:10099000D2510E01C8A9FED7996E0001D3510E01A4
:1009A000C8A9FED7996E0001E8EF04F0090EE96EC0
:1009B000CAC0CFF0C9C0CEF03FDF2C0E0E01C8A9CF
:1009C000FED7996ECBC0CEF0010E0001CF6F8CD751
:1009D0002C0E0E01C8A9FED7996E090EE96ECDC086
:1009E000CFF0CCC0CEF0000127DF12007E0E486EA3
:1009F0004968060E4A6E010E4B6E4C6A4D6A4E6A8D
:100A0000EF0E4F6EB8DCEEEF07F0200ED0A9300EDF
:100A1000D16FCFC000F0CFAF08D0001E002A00C0B9
:100A2000CFF02D0ED16FD08FD0810150CFC0D5F037
:100A3000640ED66F67DE00C0CFF0300E0124D26F97
:100A4000CFC0D5F00A0ED66F5DDE300E0024D46F15
:100A5000300E0124D36FD1C000F0300ED25D04E01F
:100A6000D083D0BFD08512D0D1C0D2F0200ED16FAC
:100A7000300ED35D04E0D081D0BFD08307D0D8A49E
:100A8000D08104E1D2C0D3F0200ED26FD0B505D012
:100A9000D0B309D0D0B10DD012D0D1510E01C8AD14
:100AA000FED7956F0001D2510E01C8ADFED7956FEC
:100AB0000001D3510E01C8ADFED7956F0001D4518E
:100AC0000E01C8ADFED7956F00011200C9C0CFF06E
:100AD000180ED06F9ADFCAC0CFF0180ED06F95DF16
:100AE000CBC0CFF0180ED06F90DFCCC0CFF0180E77
:100AF000D06F8BDFCD510E01C8ADFED7956FCEC044
:100B0000CFF0180E0001D06F80DF1200C92D06D083
:100B1000310E0E01C8ADFED7956F0001C95306E135
:100B2000300E0E01C8ADFED7956F00011200A1DD99
:100B3000558E120EC96F55C0CAF06FDD1200B9DCB8
:100B4000130EC96FE00ECA6F88DC120092DD548864
:100B5000130EC96F54C0CAF060DDCFEF09F089DD14
:100B6000548E130EC96F54C0CAF057DD120081DDD8
:100B7000548C130EC96F54C0CAF04FDDE1EF09F079
:100B800078DD548A130EC96F54C0CAF046DDE3EF16
:100B900009F06FDD5484130EC96F54C0CAF03DDDF7
:100BA000F4EF09F066DD5486130EC96F54C0CAF025
:100BB00034DD4CEF0AF05DDD5482130EC96F54C072
:100BC000CAF02BDD58EF0AF0F86AF29A078E0E0190
:100BD000550E9B6FAA0E9B6F9B91110EB06F0A0E64
:100BE000886F0B0EEE6F090EF26F550E9B6FAA0EFB
:100BF0009B6F9B819E86820E9A6E060E9B6EA60E42
:100C00009D6E900E9C6E446A456A466A476A9A8752
:100C1000820E966F060E976FA60E996F900E986FC4
:100C2000516A536A526A546A556A566A576A586AD0
:100C30005A6A596A5C6A5B6A5E6A5D6A0F010C6B8C
:100C4000146B1C6B216B296B356B366B376B346BFC
:100C5000316B326B336B306B080E0001C96FFA0ECB
:100C6000CA6F0AEC01F0C92FFAD70E01C08BC00E73
:100C7000F2120001A86BA76BAA6BA96BAC6BAB6BF4
:100C8000AD6BAE6B720EAF6F670EB06FB16BB26BC8
:100C9000B36BB46BB56BB66BB76BB96BB86BBA6B48
:100CA000BB6BBC6BBD6BBE6BBF6BC06BC16BC26BF8
:100CB000900ED46E420ED56ED4A802D0630ED36EC1
:100CC000C00ED26E0E01BD8BF2120001C96B1EEC7C
:100CD00001F0C96B63EC01F0010EC96F95EC01F0F6
:100CE000050ECA6F0AEC01F0010EC96F1EEC01F08F
:100CF000050ECA6F0AEC01F0C96BA9EC01F0050EF4
:100D0000CA6F0AEC01F0020EC96F1EEC01F0EFEFA2
:100D100001F0050ECA6F0AEC01F0010EC96FE0EC9C
:100D200001F0050ECA6F0AEC01F059EC02F061EC1B
:100D300002F0050ECA6F0AEC01F08390889083924E
:100D40008892010EAD6F898AB16B8EBAB12B8A82FF
:100D5000B26B8FB2B22B8788B36B8CB8B32B8A84FB
:100D6000B46B8FB4B42B8786B56B8CB6B52B8A80E9
:100D7000B66B8FB0B62B878AB76B8CBAB72B010EC8
:100D8000AD5DF80FD8B001EF0DF0080F0EEF0DF0CC
:100D9000C36BC35117081AE3036AC3515F0FE96EAF
:100DA000000E0320EA6EEF6A036AC351770FE96E03
:100DB000000E0320EA6EEF6A036AC3518F0FE96EDB
:100DC000000E0320EA6EEF6AC32BE3D7CA6B5F0EF7
:100DD000C96FCC6B770ECB6FCE6B8F0ECD6F180EAD
:100DE000CF6FB4EC02F059EC02F061EC02F041DCA0
:100DF00049DC50DC57DC5EDC65DC6CDC73DC7ADC07
:100E0000020EC96F1EEC01F0010EC96FE0EC01F09B
:100E1000050ECA6F0AEC01F0576A5E6A5D6A566A8F
:100E20005C6A5B6A476A456A446A466ABA6BBB6B2E
:100E3000BC6BBD6BBE6BBF6BC06BC16BB96BB86B72
:100E4000A86BA76BAA6BA96BAC6BAB6B050ECA6FDB
:100E50000AEC01F0C96B1EEC01F0AEC0CDF0AEC0E3
:100E6000CEF0C5DCC96B63EC01F0010EC96F95ECE7
:100E700001F0080EC96FFA0ECA6F0AEC01F0C92F13
:100E8000FAD7010EC96F1EEC01F0050ECA6F0AEC0D
:100E900001F0010EC96FA9EC01F0040EC96FFA0E42
:100EA000CA6F0AEC01F0C92FFAD7020EAD6F01EF3D
:100EB0000DF0010E566EB1535EE1C22D5CD0300EC6
:100EC000305CCA6FCC6BCB6F030ECE6FE80ECD6F6C
:100ED000A3D402C0CAF001C0C9F0300E315C640D69
:100EE000F350C927000ECA23300E325C0A0DF350AE
:100EF000C927000ECA233350C927000ECA23300E5B
:100F0000C95DB86F000ECA59B96F010EBA6FBB6FD9
:100F1000BC6FBD6FBE6FBF6FC06FC16F466EC96FD4
:100F20001EEC01F0C96BA9EC01F0050ECA6F0AECCA
:100F300001F0040ECA6F570EC96F010ECB6FCD6B57
:100F4000CC6B34DD5C6A5B6A566A040EC96FFA0EBC
:100F5000CA6F0AEC01F0C92FFAD7020EC96F1EEC56
:100F600001F0040EC96FFA0ECA6F0AEC01F0C92F26
:100F7000FAD7030EAD6F01EF0DF0C46BC451170823
:100F80001BE3036AC4515F0FE96E000E0320EA6E93
:100F9000320EEF6E036AC451770FE96E000E032024
:100FA000EA6EEF6A036AC4518F0FE96E000E0320E8
:100FB000EA6EEF6AC42BE2D7CA6B5F0EC96FCC6BC7
:100FC000770ECB6FCE6B8F0ECD6F180ECF6FB4EC4C
:100FD00002F0020EC96F1EEC01F008D5050ECA6FB3
:100FE0000AEC01F0010EC96F1EEC01F0010EC96F91
:100FF000CA6BCB6BCC6BAFC0CDF0030ECE6F66DD92
:101000005C6A5B6A040EAD6F01EF0DF0010E566E67
:101010005B5064080CE15C520AE1010EC96FCA6FB3
:10102000CB6BCC6BAFC0CDF0030ECE6F4FDD5B5002
:10103000C8080CE15C520AE1010EC96FCA6FCB6FA0
:10104000CC6BAFC0CDF0030ECE6F40DD5B502C08F3
:101050000CE15C2C0AD0010EC96FCA6FCB6FCC6F4C
:10106000AFC0CDF0030ECE6F31DD5B50900845E18F
:101070005C2C43D0010EC96FCA6FCB6FCC6FB0C070
:10108000CDF0030ECE6F22DDC56BC55117081BE3F3
:10109000036AC5515F0FE96E000E0320EA6EEF6A26
:1010A000036AC551770FE96E000E0320EA6E320E17
:1010B000EF6E036AC5518F0FE96E000E0320EA6ED2
:1010C000EF6AC52BE2D7CA6B5F0EC96FCC6B770E88
:1010D000CB6FCE6B8F0ECD6F180ECF6FB4EC02F0CE
:1010E000050ECA6F0AEC01F05E6A5D6A010E576E6A
:1010F0005C6A5B6A566A050EAD6FB153D8A47ED0A8
:10110000C22D7CD039EC03F0050ECA6F0AEC01F059
:10111000030EC96F1EEC01F0BEC0C9F0F7DC050E6E
:10112000CA6F0AEC01F0BF2D03D039EC03F0FFDCED
:1011300059EC02F004DDB9C0CAF0B8C0C9F0020E23
:10114000CB6FCD6BCC6B32DC050ECA6F0AEC01F0B5
:10115000020EC96F1EEC01F0030EC96FE0EC01F046
:10116000050ECA6F0AEC01F0566A5C6A5B6A010EF2
:10117000576E5E6AC80E5D6E010EC96F1EEC01F0FF
:10118000010EC96FCA6FCB6FCC6FB0C0CDF0030E2C
:10119000CE6F9CDCC66BC65117081BE3036AC651B1
:1011A0005F0FE96E000E0320EA6EEF6A036AC65114
:1011B000770FE96E000E0320EA6E320EEF6E036ABF
:1011C000C6518F0FE96E000E0320EA6EEF6AC62B40
:1011D000E2D7CA6B5F0EC96FCC6B770ECB6FCE6B4D
:1011E0008F0ECD6F180ECF6FB4EC02F0050ECA6FE4
:1011F0000AEC01F05C6A5B6A060EAD6F01EF0DF060
:10120000B15359E1C22D57D0C76BC75117081BE323
:10121000036AC7515F0FE96E000E0320EA6EEF6AA2
:10122000036AC751770FE96E000E0320EA6EEF6A7A
:10123000036AC7518F0FE96E000E0320EA6E320E6B
:10124000EF6EC72BE2D7CA6B5F0EC96FCC6B770E00
:10125000CB6FCE6B8F0ECD6F180ECF6FB4EC02F04C
:10126000050ECA6F0AEC01F0030EC96F1EEC01F007
:10127000BEC0C9F04BDC050ECA6F0AEC01F05EC0BF
:10128000ACF05DC0ABF0B9C0CAF0B8C0C9F0020E96
:10129000CB6FACC0CDF0ABC0CCF0D6EC04F059ECC9
:1012A00002F04DDC39EC03F0BF2D03D039EC03F034
:1012B0003EDC060EAD6F582C37D0C96B1EEC01F02A
:1012C000586AC96B63EC01F0010EC96F95EC01F02F
:1012D0001B6AF2BE1B8EF29E5EC0DCF05DC0DBF0CE
:1012E000DE6B640EDD6FB7EC00F01BBEF28E02C049
:1012F000CAF001C0C9F01B6AF2BE1B8EF29E5EC02E
:10130000DCF05DC0DBF0DE6B640EDD6FB7EC00F08F
:101310001BBEF28E00C0CBF003C0CCF0C9C0CDF034
:1013200000C0CEF0F7EC03F06CD3C86BC8511708BF
:101330001AE3036AC8515F0FE96E000E0320EA6EDC
:10134000EF6A036AC851770FE96E000E0320EA6E58
:10135000EF6A036AC8518F0FE96E000E0320EA6E30
:10136000EF6AC82BE3D7CA6B5F0EC96FCC6B770EE1
:10137000CB6FCE6B8F0ECD6F180ECF6FB4EC02F02B
:1013800039EC03F0B22D7ED0B353D8A47BD039EC26
:1013900003F07AEC03F0BC2D02D0A6EF05F0BA2DD5
:1013A00008D0BB2D06D0AFEC05F04AEC03F052ECB0
:1013B00003F0BA5308E1BB5306E1AFEC05F0B7EF19
:1013C00005F0C0EF05F0BA5303E1BB2D01D004D006
:1013D000BA2D08D0BB5306E142EC03F04AEC03F00F
:1013E00052EC03F0C9EF05F05EC0A8F05DC0A7F0B5
:1013F000C96B1EEC01F0020EC96F63EC01F0C96B02
:1014000095EC01F01B6AF2BE1B8EF29EA8C0DCF0C8
:10141000A7C0DBF0DE6B640EDD6FB7EC00F01BBE27
:10142000F28E02C0CAF001C0C9F01B6AF2BE1B8E68
:10143000F29EA8C0DCF0A7C0DBF0DE6B640EDD6FAF
:10144000B7EC00F01BBEF28E00C0CBF003C0CCF0B6
:10145000C9C0CDF000C0CEF0F7EC03F0050ECA6FA6
:101460000AEC01F0B9C0CAF0B8C0C9F0040ECB6FE5
:10147000A8C0CDF0A7C0CCF0D6EC04F05C6A5B6AE3
:10148000070EAD6FB42D63D0B55361E15AEC03F094
:10149000BD2D02D0D2EF05F039EC03F042EC03F0A1
:1014A0004AEC03F052EC03F06AEC03F0DBEF05F0DA
:1014B0005EC0A8F05DC0A7F0C96B1EEC01F0020E83
:1014C000C96F63EC01F0C96B95EC01F01B6AF2BEC9
:1014D0001B8EF29EA8C0DCF0A7C0DBF0DE6B640EB2
:1014E000DD6FB7EC00F01BBEF28E02C0CAF001C087
:1014F000C9F01B6AF2BE1B8EF29EA8C0DCF0A7C02A
:10150000DBF0DE6B640EDD6FB7EC00F01BBEF28E1D
:1015100000C0CBF003C0CCF0C9C0CDF000C0CEF00D
:10152000F7EC03F0050ECA6F0AEC01F0B9C0CAF07F
:10153000B8C0C9F0050ECB6FA8C0CDF0A7C0CCF0E5
:10154000D6EC04F05C6A5B6A070EAD6FDDD0B62D99
:101550005FD0B7535DE162EC03F05EC0AAF05DC0FE
:10156000A9F039EC03F072EC03F0020EC96F1EEC27
:1015700001F0040EC96FE0EC01F0050ECA6F0AEC31
:1015800001F0C96B1EEC01F0C96B95EC01F01B6A10
:10159000F2BE1B8EF29EAAC0DCF0A9C0DBF0DE6BAF
:1015A000640EDD6FB7EC00F01BBEF28E02C0CAF015
:1015B00001C0C9F01B6AF2BE1B8EF29EAAC0DCF00D
:1015C000A9C0DBF0DE6B640EDD6FB7EC00F01BBE74
:1015D000F28E00C0CBF003C0CCF0C9C0CDF000C08B
:1015E000CEF0F7EC03F0050ECA6F0AEC01F05C6A6E
:1015F0005B6AB9C0CAF0B8C0C9F0060ECB6FAAC00A
:10160000CDF0A9C0CCF0D6EC04F0080EAD6F7CD0C4
:10161000582C39D0C96B1EEC01F0586A030EC96F03
:1016200063EC01F0010EC96F95EC01F01B6AF2BE8C
:101630001B8EF29E5EC0DCF05DC0DBF0DE6B640EE4
:10164000DD6FB7EC00F01BBEF28E02C0CAF001C025
:10165000C9F01B6AF2BE1B8EF29E5EC0DCF05DC05C
:10166000DBF0DE6B640EDD6FB7EC00F01BBEF28EBC
:1016700000C0CBF003C0CCF0C9C0CDF000C0CEF0AC
:10168000F7EC03F041D05E5026083EE2FF0A03E18A
:101690005D500D0839E272EC03F0010EC96F1EECCB
:1016A00001F0010EC96FCA6FCB6FCC6FAFC0CDF028
:1016B000030ECE6F66EC05F0050ECA6F0AEC01F062
:1016C000020EC96F1EEC01F0040EC96FE0EC01F0D0
:1016D000050ECA6F0AEC01F0270EAA6F0F0EA96F54
:1016E000C96B1EEC01F0C96B63EC01F0C96B95ECA2
:1016F00001F0630ECD6FCE6FF7EC03F0050ECA6FED
:101700000AEC01F0080EAD6F7CD1010E566E5B50F5
:10171000C80805E15C5203E1566A060EAD6F5E50E3
:10172000260865E2FF0A03E15D500E0860E272ECF4
:1017300003F0010EC96F1EEC01F0010EC96FCA6FF4
:10174000CB6FCC6FAFC0CDF0030ECE6F66EC05F063
:10175000050ECA6F0AEC01F0020EC96F1EEC01F013
:10176000030EC96FE0EC01F0050ECA6F0AEC01F040
:101770005EC0AAF05DC0A9F0C96B1EEC01F0C96B98
:1017800063EC01F0C96B95EC01F01B6AF2BE1B8E95
:10179000F29EAAC0DCF0A9C0DBF0DE6B640EDD6F48
:1017A000B7EC00F01BBEF28E02C0CAF001C0C9F057
:1017B0001B6AF2BE1B8EF29EAAC0DCF0A9C0DBF051
:1017C000DE6B640EDD6FB7EC00F01BBEF28E00C066
:1017D000CBF003C0CCF0C9C0CDF000C0CEF0F7EC28
:1017E00003F0050ECA6F0AEC01F0080EAD6F09D1C7
:1017F000010E566E050ECA6F0AEC01F0C96B1EECA5
:1018000001F05B50320831E15C522FE11B6AF2BEFD
:101810001B8EF29EAAC0DCF0A9C0DBF0DE6B640E6A
:10182000DD6FB7EC00F01BBEF28E02C0CAF001C043
:10183000C9F01B6AF2BE1B8EF29EAAC0DCF0A9C0E2
:10184000DBF0DE6B640EDD6FB7EC00F01BBEF28EDA
:1018500000C0CBF003C0CCF0C9C0CDF000C0CEF0CA
:10186000F7EC03F0C96B63EC01F05B50640832E104
:101870005C5230E11B6AF2BE1B8EF29EAAC0DCF005
:10188000A9C0DBF0DE6B640EDD6FB7EC00F01BBEB1
:10189000F28E02C0CAF001C0C9F01B6AF2BE1B8EF4
:1018A000F29EAAC0DCF0A9C0DBF0DE6B640EDD6F37
:1018B000B7EC00F01BBEF28E00C0CBF003C0CCF042
:1018C000C9C0CDF000C0CEF0F7EC03F0020EC96F36
:1018D00063EC01F05B50960832E15C5230E11B6A28
:1018E000F2BE1B8EF29EAAC0DCF0A9C0DBF0DE6B5C
:1018F000640EDD6FB7EC00F01BBEF28E02C0CAF0C2
:1019000001C0C9F01B6AF2BE1B8EF29EAAC0DCF0B9
:10191000A9C0DBF0DE6B640EDD6FB7EC00F01BBE20
:10192000F28E00C0CBF003C0CCF0C9C0CDF000C037
:10193000CEF0F7EC03F0030EC96F63EC01F05B50DF
:10194000C80832E15C5230E11B6AF2BE1B8EF29E87
:10195000AAC0DCF0A9C0DBF0DE6B640EDD6FB7EC73
:1019600000F01BBEF28E02C0CAF001C0C9F01B6AB3
:10197000F2BE1B8EF29EAAC0DCF0A9C0DBF0DE6BCB
:10198000640EDD6FB7EC00F01BBEF28E00C0CBF032
:1019900003C0CCF0C9C0CDF000C0CEF0F7EC03F02E
:1019A000010EC96F63EC01F05B50D20804E15C5298
:1019B00002E15C6A5B6AB15324E1C22D22D0C96B9B
:1019C0001EEC01F0C96B63EC01F0010EC96F95ECE0
:1019D00001F0AEC0D5F0640ED66F82EC03F001C00A
:1019E000C9F0AEC0D5F0640ED66F82EC03F000C033
:1019F000CAF0C9C0CDF000C0CEF0F7EC03F0010E84
:101A0000AD6F350E006E002EFED7B1C0C2F0020ED3
:101A1000CA6F0AEC01F0A3EF06F00300E824F76AAE
:101A2000F7363D0FF66E1A0EF722000EF86EFB6EBB
:101A30000A00F550FA6E0800F550F96E900DB20EDE
:0C1A40007A0F0C1000122A130A17F0177E
:020000040030CA
:0C0000008CFF3FFF9FFFFFDFFFFFFFFFB3
:00000001FF
;PIC18F47Q10
;CRC=5A32  CREATED="19-mai-25 14:26"
