:060000000000E2EF05F034
:08000800046ED8CF05F0E0CF33
:1000100006F00001E9CF0CF0EACF07F0E1CF08F0DD
:10002000E2CF09F0D9CF0AF0DACF0BF0F3CF12F01C
:10003000F4CF13F0FACF14F0F5CF15F0F6CF16F099
:10004000F7CF17F0F8CF18F0FBCF19F000C00EF083
:1000500001C00FF002C010F003C011F00E01BDABE3
:1000600035EF00F0C5BBD8EF00F0C0AB3BEF00F0C0
:10007000C8BB6DEF00F00EC000F00FC001F010C063
:1000800002F011C003F00CC0E9FF07C0EAFF078EC1
:1000900008C0E1FF09C0E2FF0AC0D9FF0BC0DAFFC8
:1000A00012C0F3FF13C0F4FF14C0FAFF15C0F5FF30
:1000B00016C0F6FF17C0F7FF18C0F8FF19C0FBFF06
:1000C000045006C0E0FF05C0D8FF10000E01C8A90B
:1000D000FED7996E000193EF00F00001036A4750CC
:1000E000300FE96E000E0320EA6E0E01C8ABFED79A
:1000F00098CFEFFF472A4750140818E1476A465245
:1001000015E1010E446E0001E06BE05113080DE3B0
:10011000036AE051300FE96E000E0320EA6EEFCF64
:10012000E1F0E151D3D7E02BF0D70E01C89B0001DD
:100130003BEF00F072756E31000072756E32000098
:10014000636C72720000636C72670000636C726FA4
:100150000000636C72620000636C72670000616E85
:10016000696D313300003030303030300000016ACA
:10017000026A006A036AE35102E1E25118E0100EDC
:10018000E46FD890E037E13700360336E351035C83
:1001900002E1E251005C07E3E251005ED8A00306F1
:1001A000E351035ED88001360236E42FEAD712000D
:1001B0000001D4A802D0630ED36EC00ED26E572CAD
:1001C00015D05D2AD8B45E2A5EC0E1F05DC0E0F0D3
:1001D000E36B0A0EE26FCBDF00C0E0F003C0E1F09A
:1001E000E05304E1E15302E1010E586E562C03D0B6
:1001F0005B2AD8B45C2A592AD8B45A2A59506408C0
:1002000004E15A5202E15A6A596A0E01C59B000183
:100210003BEF00F0EA6ACF0EE96EEF500EE0140EED
:10022000016E006A002EFED7012EFBD7BF0E006EB6
:10023000002EFED700D0EF2EF2D71200CE51FC0FC9
:1002400016E2040F38EF01F0889083908892839231
:100250000ED0889083808892839209D08890839072
:100260008892838204D0889083808892838212004F
:10027000E824F76AF736910FF66E020EF722000EA9
:10028000F86EFB6E0A00F550FA6E0800F550F96E34
:10029000480252025C0266020900F55213E0F6CFF2
:1002A000CFF0F7CFD0F0F8CFD1F0F5500E01C8ADB8
:1002B000FED7956FCFC0F6FFD0C0F7FFD1C0F8FFD3
:1002C0000001EAD71200CE51000A07E0020A0DE051
:1002D000030A13E0020A19E020D0400EF66E010E68
:1002E000F76E000EF86ED8DF1FD0460EF66E010EC8
:1002F000F76E000EF86ED0DF17D04C0EF66E010EC2
:10030000F76E000EF86EC8DF0FD0520EF66E010EBB
:10031000F76E000EF86EC0DF07D0580EF66E010EB5
:10032000F76E000EF86EB8DF1200CE2D08D0340E36
:10033000F66E010EF76E000EF86EAEDF09D0CE53EA
:1003400007E13A0EF66E010EF76E000EF86EA4DFAE
:100350001200CE2D08D05E0EF66E010EF76E000E66
:10036000F86E9ADF07D0660EF66E010EF76E000E7D
:10037000F86E92DF1200D06BD051070811E3036AC8
:10038000D051480FE96E000E0320EA6EEFCFD1F096
:10039000D1510E01C8ADFED7956F0001D02BECD71F
:1003A00012007E0E486E4968060E4A6E4B6E4C6A0D
:1003B0004D6ACEC04EF0EF0E4F6EDDDFF2EF01F072
:1003C0007E0E486E4968060E4A6E030E4B6E4C6AEE
:1003D0004D6ACEC04EF0EF0E4F6ECDDF1200140E00
:1003E000CE6FDFD7010ECE6FEBDF8BEF06F0080E7E
:1003F000016E040E006E002EFED784968996040EC0
:10040000006E002EFED7D0378498D8B08988D8A047
:10041000899889868EA6FED7012EEBD7040E006E32
:10042000002EFED78496899600008988040E006EFF
:10043000002EFED7040E006E002EFED789868EA6F3
:10044000FED7016A040E006E002EFED78EB8018022
:10045000849689968498899812008988040E006E83
:10046000002EFED78986040E006E002EFED78498DB
:100470008998040E006E002EFED784968996400E51
:10048000D06FB5DFCEC0D0F0B2DFCFC0D0F0AFDFDD
:100490008998000089868EA6FED7040E006E002E75
:1004A000FED700D000008988040E006E002EFED713
:1004B0001200CE6BCF6BD1DF010ECE6FCF6FCDDFD1
:1004C0001200F7DF130ECE6FCF6BC7DF1200DF53C2
:1004D0000DE089948484040E006E002EFED789946A
:1004E0008494020E006E002EFED70CD08994848472
:1004F00000D000D000D089948494040E006E002EA9
:10050000FED7000096EF02F0070EDD6FDDBF10D0C2
:10051000DCC000F0DD51016E04E0D8900032012E05
:10052000FCD70050010BDE6FDF6FD1D7DD07EED7B0
:100530001200DAC0DCF0E8DFD9C0DCF0E5DFDBC0B8
:10054000DCF0E2DFD1EF02F0010ED65F0BE3EA6AE6
:10055000D60EE96EEF5006E0040E006E002EFED7B8
:10056000EF2EFAD7D6EF02F0D56BD451D55D1BE252
:10057000D551CE25E96E000ECF21EA6EEFCFD9F02E
:10058000D551D025E96E000ED121EA6EEFCFDAF019
:10059000D551D225E96E000ED321EA6EEFCFDBF004
:1005A000C8D7D52BE2D73C0ED66FCED71200080E97
:1005B000016E040E006E002EFED784968996040EFE
:1005C000006E002EFED7D0378498D8B08988D8A086
:1005D000899889868EA6FED7012EEBD7040E006E71
:1005E000002EFED78496899600008988040E006E3E
:1005F000002EFED7040E006E002EFED789868EA632
:10060000FED7016A040E006E002EFED78EB8018060
:10061000849689968498899812008988040E006EC1
:10062000002EFED78986040E006E002EFED7849819
:100630008998040E006E002EFED784968996480E87
:10064000D06FB5DFCEC0D0F0B2DFCFC0D0F0AFDF1B
:100650008998000089868EA6FED7040E006E002EB3
:10066000FED700D000008988040E006E002EFED751
:100670001200CE6B010ECF6FD0DF010ECE6FCF6FA9
:10068000CCDF1200F6DF549E130ECE6F54C0CFF0B5
:10069000C4DF1200EEDF549C130ECE6F54C0CFF0B7
:1006A000BCDF1200E6DF549A130ECE6F54C0CFF0B9
:1006B000B4DF1200DEDF5498130ECE6F54C0CFF0BB
:1006C000ACDF1200D6DF5496130ECE6F54C0CFF0BD
:1006D000A4DF1200CEDF5494130ECE6F54C0CFF0BF
:1006E0009CDF1200C6DF5492130ECE6F54C0CFF0C1
:1006F00094DF1200BEDF559E120ECE6F55C0CFF0B4
:100700008CDF1200DB51016ADA5D03E2DAC000F02F
:100710000CD0006A080EDC6FDA370036DB51005C63
:10072000D8B0006E0136DC2FF7D71200200ED5A905
:10073000300ED66FD4C000F0D4AF08D0001E002A0F
:1007400000C0D4F02D0ED66FD58FD5810150D4C006
:10075000DAF0640EDB6FD6DF00C0D4F0300E012477
:10076000D76FD4C0DAF00A0EDB6FCCDF300E002476
:10077000D96F300E0124D86FD6C000F0300ED75D8F
:1007800004E0D583D5BFD58512D0D5B510D0D6C05D
:10079000D7F0D5B304D0300ED85D04E0D581D5BFF5
:1007A000D58305D0D8A4D581D8B4D7C0D8F0D5B5D5
:1007B00005D0D5B309D0D5B10DD012D0D6510E0188
:1007C000C8ADFED7956F0001D7510E01C8ADFED759
:1007D000956F0001D8510E01C8ADFED7956F00018D
:1007E000D9510E01C8ADFED7956F00011200D2514C
:1007F000630802E2630ED26FD351630802E2630E14
:10080000D36FD2C0D4F0010ED56F90DFD3C0D4F037
:10081000010ED56F8BDF1200D051D203F3CF01F060
:10082000F4CF00F0D303F3500026D151D203F3509C
:100830000020026E1200EACFDBF0E9CFDAF0D43903
:10084000F009D66FD627E20FD76F320FD96FD45188
:100850000F0BD727D727D927E90FD86FD827D82745
:10086000D3390F0BD827D927D837D937D91FD9373C
:10087000D3510F0BD927D637070ED56F0A0ED807DD
:10088000D927FDE3D707D827FDE3D607D727FDE310
:10089000D507D627FDE3EA6AD50EE96E070EDA150D
:1008A000DA9DE926000EEA22E950D90803E1EA526E
:1008B00001E1DA8DEF50006E08E1DABD06D0DAB959
:1008C0000ED0DAB702D0200E03D0DA87DA99300ED4
:1008D000002600500E01C8A9FED7996E0001EE5007
:1008E000DAADE2D71200200ED4A9300ED56FD3C0F6
:1008F00000F0D3AF08D0001E002A00C0D3F02D0EA8
:10090000D56FD48FD4810150D3C0DAF0640EDB6F81
:10091000F9DE00C0D3F0300E0124D66FD3C0DAF078
:100920000A0EDB6FEFDE300E0024D86F300E01248C
:10093000D76FD5C000F0300ED65D04E0D483D4BFAD
:10094000D48512D0D4B510D0D5C0D6F0D4B304D04D
:10095000300ED75D04E0D481D4BFD48305D0D8A4B1
:10096000D481D8B4D6C0D7F0D4B505D0D4B309D08B
:10097000D4B10DD012D0D5510E01C8A9FED7996EB1
:100980000001D6510E01C8A9FED7996E0001D751BA
:100990000E01C8A9FED7996E0001D8510E01C8A951
:1009A000FED7996E0001E7EF04F0090EE96ECFC0A3
:1009B000D4F0CEC0D3F03FDF2C0E0E01C8A9FED775
:1009C000996ED0C0D3F0010E0001D46F8CD72C0EDD
:1009D0000E01C8A9FED7996E090EE96ED2C0D4F0F7
:1009E000D1C0D3F0000127DF12007E0E486E4968A7
:1009F000060E4A6E010E4B6E4C6A4D6A4E6AEF0E41
:100A00004F6EB9DC1200200ED5A9300ED66FD4C0BF
:100A100000F0D4AF08D0001E002A00C0D4F02D0E84
:100A2000D66FD58FD5810150D4C0DAF0640EDB6F5C
:100A300069DE00C0D4F0300E0124D76FD4C0DAF0E4
:100A40000A0EDB6F5FDE300E0024D96F300E0124FA
:100A5000D86FD6C000F0300ED75D04E0D583D5BF87
:100A6000D58512D0D6C0D7F0200ED66F300ED85D07
:100A700004E0D581D5BFD58307D0D8A4D58104E1C2
:100A8000D7C0D8F0200ED76FD5B505D0D5B309D0D3
:100A9000D5B10DD012D0D6510E01C8ADFED7956F8D
:100AA0000001D7510E01C8ADFED7956F0001D85196
:100AB0000E01C8ADFED7956F0001D9510E01C8AD2A
:100AC000FED7956F00011200CEC0D4F0180ED56F7E
:100AD0009ADFCFC0D4F0180ED56F95DFD0C0D4F018
:100AE000180ED56F90DFD1C0D4F0180ED56F8BDF04
:100AF000D2510E01C8ADFED7956FD3C0D4F0180EF9
:100B00000001D56F80DF1200CE2D06D0310E0E0110
:100B1000C8ADFED7956F0001CE5306E1300E0E0131
:100B2000C8ADFED7956F00011200A3DD558E120EE1
:100B3000CE6F55C0CFF071DD1200BBDC130ECE6F4F
:100B4000E00ECF6F8ADC120094DD5488130ECE6F56
:100B500054C0CFF062DD7AEF0AF08BDD548E130EB5
:100B6000CE6F54C0CFF059DD120083DD548C130ECC
:100B7000CE6F54C0CFF051DD8CEF0AF07ADD548A8D
:100B8000130ECE6F54C0CFF048DD8EEF0AF071DD4A
:100B90005484130ECE6F54C0CFF03FDD9FEF0AF0A8
:100BA00068DD5486130ECE6F54C0CFF036DDF9EFFA
:100BB0000AF05FDD5482130ECE6F54C0CFF02DDDEE
:100BC00005EF0BF0F86AF29A078E0E01550E9B6F37
:100BD000AA0E9B6F9B91110EB06F0A0E886F0B0EC1
:100BE000EE6F090EF26F550E9B6FAA0E9B6F9B81E5
:100BF0009E86820E9A6E060E9B6EA60E9D6E900EBF
:100C00009C6E446A456A466A476A9A87820E966F66
:100C1000060E976FA60E996F900E986F516A536AE1
:100C2000526A546A556A566A576A586A5A6A596AC1
:100C30005C6A5B6A5E6A5D6A0F010C6B146B1C6B0D
:100C4000216B296B356B366B376B346B316B326BC9
:100C5000336B306B080E0001CE6FFA0ECF6F0AECCB
:100C600001F0CE2FFAD70E01C08BC00EF212000198
:100C7000A86BA76BAA6BA96BAC6BAB6BAD6BAE6BC8
:100C8000720EAF6F670EB06FB16BB26BB36BB46BBC
:100C9000B56BB66BB76BB86BB96BBA6BBB6BBD6B37
:100CA000BC6BBE6BBF6BC06BC16BC26BC36BC46BE9
:100CB000C56BC66B900ED46E420ED56ED4A802D012
:100CC000630ED36EC00ED26E0E01BD8BF212000108
:100CD000CE6B1EEC01F0CE6B63EC01F0010ECE6F1B
:100CE00095EC01F0050ECF6F0AEC01F0010ECE6F0E
:100CF0001EEC01F0050ECF6F0AEC01F0CE6BA9ECF3
:100D000001F0050ECF6F0AEC01F0020ECE6F1EEC63
:100D100001F0EFEF01F0050ECF6F0AEC01F0010ECC
:100D2000CE6FE0EC01F0050ECF6F0AEC01F059EC4C
:100D300002F061EC02F0050ECF6F0AEC01F0839037
:100D4000889083928892010EAD6F898AB16B8EBABA
:100D5000B12B8784B26B8CB4B22B8A86B36B8FB6FF
:100D6000B32B8A82B46B8FB2B42B8788B56B8CB8E7
:100D7000B52B8A84B76B8FB4B72B8786B86B8CB6CC
:100D8000B82B8A80BA6B8FB0BA2B878ABB6B8CBAB0
:100D9000BB2B010EAD5DF80FD8B0B0EF0DF0080F12
:100DA000BDEF0DF0B36BC76BC75117081AE3036AA9
:100DB000C7515F0FE96E000E0320EA6EEF6A036A07
:100DC000C751770FE96E000E0320EA6EEF6A036ADF
:100DD000C7518F0FE96E000E0320EA6EEF6AC72B32
:100DE000E3D7CF6B5F0ECE6FD16B770ED06FD36B27
:100DF0008F0ED26F180ED46FB4EC02F059EC02F0E3
:100E000061EC02F036DC3EDC45DC4CDC53DC5ADCC9
:100E100061DC68DC6FDC020ECE6F1EEC01F0010EAF
:100E2000CE6FE0EC01F0050ECF6F0AEC01F0576ACF
:100E30005E6A5D6A566A5C6A5B6A476A456A446ACA
:100E4000466ABE6BBF6BC06BC16BC26BC36BC46BBE
:100E5000C56BBD6BBC6BA86BA76BAA6BA96BAC6BAE
:100E6000AB6B050ECF6F0AEC01F0CE6B1EEC01F000
:100E7000AEC0D2F0AEC0D3F0BADCCE6B63EC01F002
:100E8000010ECE6F95EC01F0080ECE6FFA0ECF6F0B
:100E90000AEC01F0CE2FFAD7010ECE6F1EEC01F056
:100EA000050ECF6F0AEC01F0010ECE6FA9EC01F038
:100EB000040ECE6FFA0ECF6F0AEC01F0CE2FFAD7E8
:100EC000020EAD6FB0EF0DF0010E566EB253D8A406
:100ED0008DD0B153D8A489D0C62D87D0C86BC85146
:100EE00017081AE3036AC8515F0FE96E000E03206A
:100EF000EA6EEF68036AC851770FE96E000E0320AF
:100F0000EA6EEF6A036AC8518F0FE96E000E032084
:100F1000EA6EEF6AC82BE3D7CF6B5F0ECE6FD16B53
:100F2000770ED06FD36B8F0ED26F180ED46FB4ECD8
:100F300002F0300E305CCF6FD16BD06F030ED36FE9
:100F4000E80ED26F69DC02C0CFF001C0CEF0300EE7
:100F5000315C640DF350CE27000ECF23300E325C8F
:100F60000A0DF350CE27000ECF233350CE27000EAC
:100F7000CF23300ECE5DBC6F000ECF59BD6F010E7A
:100F8000BE6FBF6FC06FC16FC26FC36FC46FC56FDD
:100F9000466ECE6F1EEC01F0CE6BA9EC01F0050E93
:100FA000CF6F0AEC01F0040ECF6F570ECE6F010E1B
:100FB000D06FD26BD16BF9DC5C6A5B6A566A040E47
:100FC000CE6FFA0ECF6F0AEC01F0CE2FFAD7020ED9
:100FD000CE6F1EEC01F0040ECE6FFA0ECF6F0AEC4E
:100FE00001F0CE2FFAD7030EAD6F98D0B153D8A42D
:100FF00095D0C62D93D0442C91D0C96BC9511708F8
:101000001AE3036AC9515F0FE96E000E0320EA6E0E
:10101000EF68036AC951770FE96E000E0320EA6E8C
:10102000EF6A036AC9518F0FE96E000E0320EA6E62
:10103000EF6AC92BE3D7CF6B5F0ECE6FD16B770E04
:10104000D06FD36B8F0ED26F180ED46FB4EC02F04A
:10105000300E305CCF6FD16BD06F030ED36FE80EC4
:10106000D26F0CEC04F002C0CFF001C0CEF0300E15
:10107000315C640DF350CE27000ECF23300E325C6E
:101080000A0DF350CE27000ECF233350CE27000E8B
:10109000CF23300ECE5DBC6F000ECF59BD6F300E2A
:1010A000355CBE6F300E375CBF6F300E395CC06F81
:1010B000300E3B5CC16F300E3D5CC26F300E3F5C4A
:1010C000C36F300E415CC46F300E435CC56F010EC0
:1010D000466ECE6F1EEC01F0CE6BA9EC01F0050E52
:1010E000CF6F0AEC01F0040ECF6F570ECE6F010EDA
:1010F000D06FD26BD16B59DC5C6A5B6A566A020EA8
:10110000CE6F1EEC01F071DC040ECE6FFA0ECF6FC5
:101110000AEC01F0CE2FFAD7030EAD6FB0EF0DF051
:10112000020ECE6F1EEC01F060DC050ECF6F0AECF4
:1011300001F0010ECE6F1EEC01F0010ECE6FCF6BF1
:10114000D06BD16BAFC0D2F0030ED36FBDDC5C6A45
:101150005B6A040EAD6FB0EF0DF0010E566E5B5082
:1011600064080CE15C520AE1010ECE6FCF6FD06BC8
:10117000D16BAFC0D2F0030ED36FA6DC5B50C808B2
:101180000CE15C520AE1010ECE6FCF6FD06FD16BD4
:10119000AFC0D2F0030ED36F97DC5B502C080CE18C
:1011A0005C2C0AD0010ECE6FCF6FD06FD16FAFC065
:1011B000D2F0030ED36F88DC5B50900844E15C2CC6
:1011C00042D0010ECE6FCF6FD06FD16FB0C0D2F0D2
:1011D000030ED36F79DCCA6BCA5117081AE3036A8E
:1011E000CA515F0FE96E000E0320EA6EEF6A036AD0
:1011F000CA51770FE96E000E0320EA6EEF68036AAA
:10120000CA518F0FE96E000E0320EA6EEF6ACA2BF7
:10121000E3D7CF6B5F0ECE6FD16B770ED06FD36BF2
:101220008F0ED26F180ED46FB4EC02F0050ECF6F94
:101230000AEC01F05E6A5D6A010E576E5C6A5B6AD9
:10124000566A050EAD6FB153D8A47FD0C62D7DD0A0
:1012500039EC03F0050ECF6F0AEC01F0030ECE6FF0
:101260001EEC01F0C2C0CEF04FDC050ECF6F0AECD1
:1012700001F0C32D03D039EC03F057DC59EC02F038
:101280005CDCBDC0CFF0BCC0CEF0020ED06FD26B24
:10129000D16BD5EC04F0050ECF6F0AEC01F0020E15
:1012A000CE6F1EEC01F0030ECE6FE0EC01F0050EE8
:1012B000CF6F0AEC01F0566A5C6A5B6A010E576EEA
:1012C0005E6AC80E5D6E010ECE6F1EEC01F0010E5F
:1012D000CE6FCF6FD06FD16FB0C0D2F0030ED36F8F
:1012E00064EC05F0CB6BCB5117081AE3036ACB51C2
:1012F0005F0FE96E000E0320EA6EEF6A036ACB51BE
:10130000770FE96E000E0320EA6EEF68036ACB5197
:101310008F0FE96E000E0320EA6EEF6ACB2BE3D746
:10132000CF6B5F0ECE6FD16B770ED06FD36B8F0EFE
:10133000D26F180ED46FB4EC02F0050ECF6F0AEC2A
:1013400001F05C6A5B6A060EAD6FB0EF0DF0B15351
:101350005BE1C62D59D0CC6BCC5117081AE3036A58
:10136000CC515F0FE96E000E0320EA6EEF6A036A4C
:10137000CC51770FE96E000E0320EA6EEF6A036A24
:10138000CC518F0FE96E000E0320EA6EEF68CC2B74
:10139000E3D7CF6B5F0ECE6FD16B770ED06FD36B71
:1013A0008F0ED26F180ED46FB4EC02F0050ECF6F13
:1013B0000AEC01F0030ECE6F1EEC01F0C2C0CEF0BD
:1013C00084EC05F0050ECF6F0AEC01F05EC0ACF0C6
:1013D0005DC0ABF0BDC0CFF0BCC0CEF0020ED06F90
:1013E000ACC0D2F0ABC0D1F0D5EC04F059EC02F0B7
:1013F0009DEC05F039EC03F0C32D04D039EC03F07B
:1014000095EC05F0060EAD6F582C37D0CE6B1EEC68
:1014100001F0586ACE6B63EC01F0010ECE6F95ECD3
:1014200001F01B6AF2BE1B8EF29E5EC0E1F05DC051
:10143000E0F0E36B640EE26FB7EC00F01BBEF28EDF
:1014400002C0CFF001C0CEF01B6AF2BE1B8EF29E2E
:101450005EC0E1F05DC0E0F0E36B640EE26FB7ECFC
:1014600000F01BBEF28E00C0D0F003C0D1F0CEC0A1
:10147000D2F000C0D3F0F7EC03F072D3CD6BCD51B6
:1014800017081AE3036ACD515F0FE96E000E0320BF
:10149000EA6EEF6A036ACD51770FE96E000E032002
:1014A000EA6EEF6A036ACD518F0FE96E000E0320DA
:1014B000EA6EEF6ACD2BE3D7CF6B5F0ECE6FD16BA9
:1014C000770ED06FD36B8F0ED26F180ED46FB4EC33
:1014D00002F039EC03F0B42D80D0B553D8A47DD000
:1014E000010EB66F39EC03F07AEC03F0C02D02D098
:1014F000A4EF05F0BE2D08D0BF2D06D0ADEC05F051
:101500004AEC03F052EC03F0BE5308E1BF5306E18E
:10151000ADEC05F0B5EF05F0BEEF05F0BE5303E10D
:10152000BF2D01D004D0BE2D08D0BF5306E142EC40
:1015300003F04AEC03F052EC03F0C7EF05F05EC095
:10154000A8F05DC0A7F0CE6B1EEC01F0020ECE6FCE
:1015500063EC01F0CE6B95EC01F01B6AF2BE1B8EC2
:10156000F29EA8C0E1F0A7C0E0F0E36B640EE26F6A
:10157000B7EC00F01BBEF28E02C0CFF001C0CEF07F
:101580001B6AF2BE1B8EF29EA8C0E1F0A7C0E0F07D
:10159000E36B640EE26FB7EC00F01BBEF28E00C08E
:1015A000D0F003C0D1F0CEC0D2F000C0D3F0F7EC41
:1015B00003F0050ECF6F0AEC01F0BDC0CFF0BCC048
:1015C000CEF0040ED06FA8C0D2F0A7C0D1F0D5ECF9
:1015D00004F05C6A5B6A070EAD6FB72D65D0B85337
:1015E00063E1010EB96F5AEC03F0C12D02D0D0EFC8
:1015F00005F039EC03F042EC03F04AEC03F052EC56
:1016000003F06AEC03F0D9EF05F05EC0A8F05DC00E
:10161000A7F0CE6B1EEC01F0020ECE6F63EC01F072
:10162000CE6B95EC01F01B6AF2BE1B8EF29EA8C039
:10163000E1F0A7C0E0F0E36B640EE26FB7EC00F0FE
:101640001BBEF28E02C0CFF001C0CEF01B6AF2BE0C
:101650001B8EF29EA8C0E1F0A7C0E0F0E36B640E21
:10166000E26FB7EC00F01BBEF28E00C0D0F003C0FA
:10167000D1F0CEC0D2F000C0D3F0F7EC03F0050EED
:10168000CF6F0AEC01F0BDC0CFF0BCC0CEF0050EAC
:10169000D06FA8C0D2F0A7C0D1F0D5EC04F05C6A3E
:1016A0005B6A070EAD6FDDD0BA2D5FD0BB535DE135
:1016B00062EC03F05EC0AAF05DC0A9F039EC03F063
:1016C00072EC03F0020ECE6F1EEC01F0040ECE6F32
:1016D000E0EC01F0050ECF6F0AEC01F0CE6B1EECD2
:1016E00001F0CE6B95EC01F01B6AF2BE1B8EF29EF0
:1016F000AAC0E1F0A9C0E0F0E36B640EE26FB7ECC2
:1017000000F01BBEF28E02C0CFF001C0CEF01B6A0B
:10171000F2BE1B8EF29EAAC0E1F0A9C0E0F0E36B1E
:10172000640EE26FB7EC00F01BBEF28E00C0D0F08A
:1017300003C0D1F0CEC0D2F000C0D3F0F7EC03F07C
:10174000050ECF6F0AEC01F05C6A5B6ABDC0CFF09A
:10175000BCC0CEF0060ED06FAAC0D2F0A9C0D1F0A6
:10176000D5EC04F0080EAD6F7CD0582C39D0CE6B80
:101770001EEC01F0586A030ECE6F63EC01F0010E0F
:10178000CE6F95EC01F01B6AF2BE1B8EF29E5EC01E
:10179000E1F05DC0E0F0E36B640EE26FB7EC00F0E7
:1017A0001BBEF28E02C0CFF001C0CEF01B6AF2BEAB
:1017B0001B8EF29E5EC0E1F05DC0E0F0E36B640E54
:1017C000E26FB7EC00F01BBEF28E00C0D0F003C099
:1017D000D1F0CEC0D2F000C0D3F0F7EC03F041D08E
:1017E0005E5026083EE2FF0A03E15D500D0839E233
:1017F00072EC03F0010ECE6F1EEC01F0010ECE6F05
:10180000CF6FD06FD16FAFC0D2F0030ED36F64EC47
:1018100005F0050ECF6F0AEC01F0020ECE6F1EEC44
:1018200001F0040ECE6FE0EC01F0050ECF6F0AEC74
:1018300001F0270EAA6F0F0EA96FCE6B1EEC01F000
:10184000CE6B63EC01F0CE6B95EC01F0630ED26FC2
:10185000D36FF7EC03F0050ECF6F0AEC01F0080E22
:10186000AD6F7ED1010E566E5B50C80805E15C522B
:1018700003E1566A060EAD6F5E50260865E2FF0A68
:1018800003E15D500E0860E272EC03F0010ECE6FD2
:101890001EEC01F0010ECE6FCF6FD06FD16FAFC0D5
:1018A000D2F0030ED36F64EC05F0050ECF6F0AEC97
:1018B00001F0020ECE6F1EEC01F0030ECE6FE0ECD5
:1018C00001F0050ECF6F0AEC01F05EC0AAF05DC01A
:1018D000A9F0CE6B1EEC01F0CE6B63EC01F0CE6B89
:1018E00095EC01F01B6AF2BE1B8EF29EAAC0E1F0DD
:1018F000A9C0E0F0E36B640EE26FB7EC00F01BBE32
:10190000F28E02C0CFF001C0CEF01B6AF2BE1B8E79
:10191000F29EAAC0E1F0A9C0E0F0E36B640EE26FB2
:10192000B7EC00F01BBEF28E00C0D0F003C0D1F0C7
:10193000CEC0D2F000C0D3F0F7EC03F0050ECF6FAD
:101940000AEC01F0080EAD6F0BD1010E566E050EBC
:10195000CF6F0AEC01F0CE6B1EEC01F05B50320849
:1019600031E15C522FE11B6AF2BE1B8EF29EAAC0CF
:10197000E1F0A9C0E0F0E36B640EE26FB7EC00F0B9
:101980001BBEF28E02C0CFF001C0CEF01B6AF2BEC9
:101990001B8EF29EAAC0E1F0A9C0E0F0E36B640EDA
:1019A000E26FB7EC00F01BBEF28E00C0D0F003C0B7
:1019B000D1F0CEC0D2F000C0D3F0F7EC03F0CE6B84
:1019C00063EC01F05B50640832E15C5230E11B6A69
:1019D000F2BE1B8EF29EAAC0E1F0A9C0E0F0E36B5C
:1019E000640EE26FB7EC00F01BBEF28E02C0CFF0C7
:1019F00001C0CEF01B6AF2BE1B8EF29EAAC0E1F0BF
:101A0000A9C0E0F0E36B640EE26FB7EC00F01BBE20
:101A1000F28E00C0D0F003C0D1F0CEC0D2F000C032
:101A2000D3F0F7EC03F0020ECE6F63EC01F05B50E5
:101A3000960832E15C5230E11B6AF2BE1B8EF29EC8
:101A4000AAC0E1F0A9C0E0F0E36B640EE26FB7EC6E
:101A500000F01BBEF28E02C0CFF001C0CEF01B6AB8
:101A6000F2BE1B8EF29EAAC0E1F0A9C0E0F0E36BCB
:101A7000640EE26FB7EC00F01BBEF28E00C0D0F037
:101A800003C0D1F0CEC0D2F000C0D3F0F7EC03F029
:101A9000030ECE6F63EC01F05B50C80832E15C527C
:101AA00030E11B6AF2BE1B8EF29EAAC0E1F0A9C013
:101AB000E0F0E36B640EE26FB7EC00F01BBEF28E59
:101AC00002C0CFF001C0CEF01B6AF2BE1B8EF29EA8
:101AD000AAC0E1F0A9C0E0F0E36B640EE26FB7ECDE
:101AE00000F01BBEF28E00C0D0F003C0D1F0CEC01B
:101AF000D2F000C0D3F0F7EC03F0010ECE6F63EC30
:101B000001F05B50D20804E15C5202E15C6A5B6A5E
:101B1000B15324E1C62D22D0CE6B1EEC01F0CE6B6A
:101B200063EC01F0010ECE6F95EC01F0AEC0DAF07F
:101B3000640EDB6F82EC03F001C0CEF0AEC0DAF0D1
:101B4000640EDB6F82EC03F000C0CFF0CEC0D2F0A9
:101B500000C0D3F0F7EC03F0010EAD6FB66BB96BBC
:101B6000350E006E002EFED7B1C0C6F0020ECF6F4C
:101B70000AEC01F0A5EF06F00300E824F76AF73657
:101B80009B0FF66E1B0EF722000EF86EFB6E0A001E
:101B9000F550FA6E0800F550F96EA40DC80E20112C
:0A1BA0005A114E137C1464184A1900
:020000040030CA
:0C0000008CFF3FFF9FFFFFDFFFFFFFFFB3
:00000001FF
;PIC18F47Q10
;CRC=02BF  CREATED="12-sept.-25 13:41"
