:060000000000CFEF05F047
:08000800046ED8CF05F0E0CF33
:1000100006F00001E9CF0CF0EACF07F0E1CF08F0DD
:10002000E2CF09F0D9CF0AF0DACF0BF0F3CF12F01C
:10003000F4CF13F0FACF14F0F5CF15F0F6CF16F099
:10004000F7CF17F0F8CF18F0FBCF19F000C00EF083
:1000500001C00FF002C010F003C011F00E01BDABE3
:1000600035EF00F0C5BBD8EF00F0C0AB3BEF00F0C0
:10007000C8BB6DEF00F00EC000F00FC001F010C063
:1000800002F011C003F00CC0E9FF07C0EAFF078EC1
:1000900008C0E1FF09C0E2FF0AC0D9FF0BC0DAFFC8
:1000A00012C0F3FF13C0F4FF14C0FAFF15C0F5FF30
:1000B00016C0F6FF17C0F7FF18C0F8FF19C0FBFF06
:1000C000045006C0E0FF05C0D8FF10000E01C8A90B
:1000D000FED7996E000193EF00F00001036A4750CC
:1000E000300FE96E000E0320EA6E0E01C8ABFED79A
:1000F00098CFEFFF472A4750140818E1476A465245
:1001000015E1010E446E0001D66BD65113080DE3C4
:10011000036AD651300FE96E000E0320EA6EEFCF6E
:10012000D7F0D751D3D7D62BF0D70E01C89B0001FB
:100130003BEF00F072756E31000072756E32000098
:10014000636C72720000636C72670000636C726FA4
:100150000000636C72620000636C72670000616E85
:10016000696D313300003030303030300000016ACA
:10017000026A006A036AD95102E1D85118E0100EF0
:10018000DA6FD890D637D73700360336D951035CAB
:1001900002E1D851005C07E3D851005ED8A0030605
:1001A000D951035ED88001360236DA2FEAD7120021
:1001B0000001D4A802D0630ED36EC00ED26E572CAD
:1001C00015D05D2AD8B45E2A5EC0D7F05DC0D6F0E7
:1001D000D96B0A0ED86FCBDF00C0D6F003C0D7F0C2
:1001E000D65304E1D75302E1010E586E562C03D0CA
:1001F0005B2AD8B45C2A592AD8B45A2A59506408C0
:1002000004E15A5202E15A6A596A0E01C59B000183
:100210003BEF00F0EA6AC50EE96EEF500EE0050E06
:10022000016E006A002EFED7012EFBD72E0E006E47
:10023000002EFED700D0EF2EF2D71200C451FC0FD3
:1002400016E2040F38EF01F0889083908892839231
:100250000ED0889083808892839209D08890839072
:100260008892838204D0889083808892838212004F
:10027000E824F76AF736910FF66E020EF722000EA9
:10028000F86EFB6E0A00F550FA6E0800F550F96E34
:10029000480252025C0266020900F55213E0F6CFF2
:1002A000C5F0F7CFC6F0F8CFC7F0F5500E01C8ADD6
:1002B000FED7956FC5C0F6FFC6C0F7FFC7C0F8FFF1
:1002C0000001EAD71200C451000A07E0020A0DE05B
:1002D000030A13E0020A19E020D0400EF66E010E68
:1002E000F76E000EF86ED8DF1FD0460EF66E010EC8
:1002F000F76E000EF86ED0DF17D04C0EF66E010EC2
:10030000F76E000EF86EC8DF0FD0520EF66E010EBB
:10031000F76E000EF86EC0DF07D0580EF66E010EB5
:10032000F76E000EF86EB8DF1200C42D08D0340E40
:10033000F66E010EF76E000EF86EAEDF09D0C453F4
:1003400007E13A0EF66E010EF76E000EF86EA4DFAE
:100350001200C42D08D05E0EF66E010EF76E000E70
:10036000F86E9ADF07D0660EF66E010EF76E000E7D
:10037000F86E92DF1200C66BC651070811E3036ADC
:10038000C651480FE96E000E0320EA6EEFCFC7F0AA
:10039000C7510E01C8ADFED7956F0001C62BECD733
:1003A00012007E0E486E4968060E4A6E4B6E4C6A0D
:1003B0004D6AC4C04EF0EF0E4F6EDDDFF2EF01F07C
:1003C0007E0E486E4968060E4A6E030E4B6E4C6AEE
:1003D0004D6AC4C04EF0EF0E4F6ECDDF1200140E0A
:1003E000C46FDFD7010EC46FEBDF74EF06F0080EA9
:1003F000016E040E006E002EFED784968996040EC0
:10040000006E002EFED7C6378498D8B08988D8A051
:10041000899889868EA6FED7012EEBD7040E006E32
:10042000002EFED78496899600008988040E006EFF
:10043000002EFED7040E006E002EFED789868EA6F3
:10044000FED7016A040E006E002EFED78EB8018022
:10045000849689968498899812008988040E006E83
:10046000002EFED78986040E006E002EFED78498DB
:100470008998040E006E002EFED784968996400E51
:10048000C66FB5DFC4C0C6F0B2DFC5C0C6F0AFDF0F
:100490008998000089868EA6FED7040E006E002E75
:1004A000FED700D000008988040E006E002EFED713
:1004B0001200C46BC56BD1DF010EC46FC56FCDDFF9
:1004C0001200F7DF130EC46FC56BC7DF1200D553E0
:1004D00009E08994848400D000D08994849400D069
:1004E00000D008D08994848400D000D0899484946A
:1004F00000D000D08EEF02F0070ED36FD3BF10D024
:10050000D2C000F0D351016E04E0D8900032012E29
:10051000FCD70050010BD46FD56FD9D7D307EED7D6
:100520001200D0C0D2F0E8DFCFC0D2F0E5DFD1C0FA
:10053000D2F0E2DFB9EF02F0CB6BCA51CB5D1BE228
:10054000CB51C425E96E000EC521EA6EEFCFCFF086
:10055000CB51C625E96E000EC721EA6EEFCFD0F071
:10056000CB51C825E96E000EC921EA6EEFCFD1F05C
:10057000D8D7CB2BE2D74F0E006E002EFED700D07F
:10058000DEEF06F0080E016E040E006E002EFED7A0
:1005900084968996040E006E002EFED7C637849886
:1005A000D8B08988D8A0899889868EA6FED7012ED2
:1005B000EBD7040E006E002EFED7849689960000BD
:1005C0008988040E006E002EFED7040E006E002EE9
:1005D000FED789868EA6FED7016A040E006E002E15
:1005E000FED78EB8018084968996849889981200E7
:1005F0008988040E006E002EFED78986040E006ED8
:10060000002EFED784988998040E006E002EFED727
:1006100084968996480EC66FB5DFC4C0C6F0B2DFB7
:10062000C5C0C6F0AFDF8998000089868EA6FED7C8
:10063000040E006E002EFED700D000008988040E44
:10064000006E002EFED71200C46B010EC56FD0DF06
:10065000010EC46FC56FCCDF1200F6DF549E130E7F
:10066000C46F54C0C5F0C4DF1200EEDF549C130EFB
:10067000C46F54C0C5F0BCDF1200E6DF549A130EFD
:10068000C46F54C0C5F0B4DF1200DEDF5498130EFF
:10069000C46F54C0C5F0ACDF1200D6DF5496130E01
:1006A000C46F54C0C5F0A4DF1200CEDF5494130E03
:1006B000C46F54C0C5F09CDF1200C6DF5492130E05
:1006C000C46F54C0C5F094DF1200BEDF559E120EF9
:1006D000C46F55C0C5F08CDF1200D151016AD05DE6
:1006E00003E2D0C000F00CD0006A080ED26FD03701
:1006F0000036D151005CD8B0006E0136D22FF7D74A
:100700001200200ECBA9300ECC6FCAC000F0CAAFC9
:1007100008D0001E002A00C0CAF02D0ECC6FCB8F6F
:10072000CB810150CAC0D0F0640ED16FD6DF00C0BB
:10073000CAF0300E0124CD6FCAC0D0F00A0ED16FBE
:10074000CCDF300E0024CF6F300E0124CE6FCCC032
:1007500000F0300ECD5D04E0CB83CBBFCB8512D053
:10076000CBB510D0CCC0CDF0CBB304D0300ECE5D25
:1007700004E0CB81CBBFCB8305D0D8A4CB81D8B448
:10078000CDC0CEF0CBB505D0CBB309D0CBB10DD019
:1007900012D0CC510E01C8ADFED7956F0001CD51DE
:1007A0000E01C8ADFED7956F0001CE510E01C8AD48
:1007B000FED7956F0001CF510E01C8ADFED7956FE2
:1007C00000011200C851630802E2630EC86FC951EC
:1007D000630802E2630EC96FC8C0CAF0010ECB6F96
:1007E00090DFC9C0CAF0010ECB6F8BDF1200C6517B
:1007F000C803F3CF01F0F4CF00F0C903F350002693
:10080000C751C803F3500020026E54EF07F0EACF3F
:10081000D1F0E9CFD0F0CA39F009CC6FCC27E20F84
:10082000CD6F320FCF6FCA510F0BCD27CD27CF27FA
:10083000E90FCE6FCE27CE27C9390F0BCE27CF2792
:10084000CE37CF37CF1FCF37C9510F0BCF27CC377C
:10085000070ECB6F0A0ECE07CF27FDE3CD07CE27BD
:10086000FDE3CC07CD27FDE3CB07CC27FDE3EA6A08
:10087000CB0EE96E070ED015D09DE926000EEA22B8
:10088000E950CF0803E1EA5201E1D08DEF50006E4C
:1008900008E1D0BD06D0D0B90ED0D0B702D0200E1E
:1008A00003D0D087D099300E002600500E01C8A981
:1008B000FED7996E0001EE50D0ADE2D71200200EA7
:1008C000CAA9300ECB6FC9C000F0C9AF08D0001E56
:1008D000002A00C0C9F02D0ECB6FCA8FCA8101500B
:1008E000C9C0D0F0640ED16FF8DE00C0C9F0300E80
:1008F0000124CC6FC9C0D0F00A0ED16FEEDE300EED
:100900000024CE6F300E0124CD6FCBC000F0300E2E
:10091000CC5D04E0CA83CABFCA8512D0CAB510D064
:10092000CBC0CCF0CAB304D0300ECD5D04E0CA8198
:10093000CABFCA8305D0D8A4CA81D8B4CCC0CDF070
:10094000CAB505D0CAB309D0CAB10DD012D0CB51A7
:100950000E01C8A9FED7996E0001CC510E01C8A99D
:10096000FED7996E0001CD510E01C8A9FED7996E30
:100970000001CE510E01C8A9FED7996E0001D3EF38
:1009800004F0090EE96EC5C0CAF0C4C0C9F03FDF6B
:100990002C0E0E01C8A9FED7996EC6C0C9F0010E73
:1009A0000001CA6F8CD72C0E0E01C8A9FED7996E14
:1009B000090EE96EC8C0CAF0C7C0C9F0000127DF40
:1009C00012007E0E486E4968060E4A6E010E4B6E8E
:1009D0004C6A4D6A4E6AEF0E4F6ECDDCADEF07F0FC
:1009E000200ECBA9300ECC6FCAC000F0CAAF08D021
:1009F000001E002A00C0CAF02D0ECC6FCB8FCB8119
:100A00000150CAC0D0F0640ED16F67DE00C0CAF0DA
:100A1000300E0124CD6FCAC0D0F00A0ED16F5DDE5A
:100A2000300E0024CF6F300E0124CE6FCCC000F00A
:100A3000300ECD5D04E0CB83CBBFCB8512D0CCC0D4
:100A4000CDF0200ECC6F300ECE5D04E0CB81CBBF5D
:100A5000CB8307D0D8A4CB8104E1CDC0CEF0200E4B
:100A6000CD6FCBB505D0CBB309D0CBB10DD012D063
:100A7000CC510E01C8ADFED7956F0001CD510E01CE
:100A8000C8ADFED7956F0001CE510E01C8ADFED79F
:100A9000956F0001CF510E01C8ADFED7956F0001D3
:100AA0001200C4C0CAF0180ECB6F9ADFC5C0CAF0DE
:100AB000180ECB6F95DFC6C0CAF0180ECB6F90DF53
:100AC000C7C0CAF0180ECB6F8BDFC8510E01C8AD7E
:100AD000FED7956FC9C0CAF0180E0001CB6F80DF3A
:100AE0001200C42D06D0310E0E01C8ADFED7956F91
:100AF0000001C45306E1300E0E01C8ADFED7956F5C
:100B000000011200A1DD558E120EC46F55C0C5F054
:100B10006FDD1200CEDC130EC46FE00EC56F9DDCDE
:100B2000120092DD5488130EC46F54C0C5F060DD0E
:100B3000DBEF08F089DD548E130EC46F54C0C5F08E
:100B400057DD120081DD548C130EC46F54C0C5F004
:100B50004FDDEAEF08F078DD548A130EC46F54C0FD
:100B6000C5F046DDEBEF08F06FDD5484130EC46F63
:100B700054C0C5F03DDDFBEF08F066DD5486130E72
:100B8000C46F54C0C5F034DD52EF09F05DDD54820E
:100B9000130EC46F54C0C5F02BDD5DEF09F0F86A89
:100BA000F29A078E0E01550E9B6FAA0E9B6F9B91BA
:100BB000110EB06F0A0E886F0B0EEE6F090EF26FFA
:100BC000550E9B6FAA0E9B6F9B819E86820E9A6E1E
:100BD000060E9B6EA60E9D6E900E9C6E446A456A34
:100BE000466A476A9A87820E966F060E976FA60E20
:100BF000996F900E986F516A536A526A546A556A97
:100C0000566A576A586A5A6A596A5C6A5B6A5E6AC7
:100C10005D6A0F010C6B146B1C6B216B296B356BC0
:100C2000366B376B346B316B326B336B306B080E5A
:100C30000001C46FFA0EC56F0AEC01F0C42FFAD799
:100C40000E01C08BC00EF2120001A86BA76BAA6B3D
:100C5000A96BAC6BAB6BAD6BAE6B720EAF6F670E0F
:100C6000B06FB16BB26BB36BB46BB56BB66BB76B8C
:100C7000B96BB86BBA6BBB6BBC6BBD6BBE6BBF6B40
:100C8000C06BC16BC26B900ED46E420ED56ED4A8F1
:100C900002D0630ED36EC00ED26E0E01BD8BF21267
:100CA0000001C46B1EEC01F0C46B63EC01F0010E9B
:100CB000C46F95EC01F0050EC56F0AEC01F0010E52
:100CC000C46F1EEC01F0050EC56F0AEC01F0C46B99
:100CD000A9EC01F0050EC56F0AEC01F0020EC46F1D
:100CE0001EEC01F0EFEF01F0050EC56F0AEC01F00C
:100CF000010EC46FE0EC01F0050EC56F0AEC01F0C7
:100D000059EC02F061EC02F0050EC56F0AEC01F03F
:100D10008390889083928892010EAD6F898AB16B1F
:100D20008EBAB12B8A82B26B8FB2B22B8788B36B2B
:100D30008CB8B32B8A84B46B8FB4B42B8786B56B15
:100D40008CB6B52B8A80B66B8FB0B62B878AB76B03
:100D50008CBAB72B010EAD5DF80FD8B006EF0CF0D2
:100D6000080F13EF0CF0C36BC35117081AE3036AA3
:100D7000C3515F0FE96E000E0320EA6EEF6A036A4B
:100D8000C351770FE96E000E0320EA6EEF6A036A23
:100D9000C3518F0FE96E000E0320EA6EEF68C32B7C
:100DA000E3D7C56B5F0EC46FC76B770EC66FC96B99
:100DB0008F0EC86F180ECA6F9CEF02F059EC02F04C
:100DC00061EC02F041DC49DC50DC57DC5EDC65DCC8
:100DD0006CDC73DC7ADC020EC46F1EEC01F0010ED9
:100DE000C46FE0EC01F0050EC56F0AEC01F0576A24
:100DF0005E6A5D6A566A5C6A5B6A476A456A446A0B
:100E0000466ABA6BBB6BBC6BBD6BBE6BBF6BC06B1A
:100E1000C16BB96BB86BA86BA76BAA6BA96BAC6BFA
:100E2000AB6B050EC56F0AEC01F0C46B1EEC01F054
:100E3000AEC0C8F0AEC0C9F0C5DCC46B63EC01F055
:100E4000010EC46F95EC01F0080EC46FFA0EC56F69
:100E50000AEC01F0C42FFAD7010EC46F1EEC01F0AA
:100E6000050EC56F0AEC01F0010EC46FA9EC01F08C
:100E7000040EC46FFA0EC56F0AEC01F0C42FFAD746
:100E8000020EAD6F06EF0CF0010E566EB1535EE12F
:100E9000C22D5CD0300E305CC56FC76BC66F030EC1
:100EA000C96FE80EC86FA3D402C0C5F001C0C4F07A
:100EB000300E315C640DF350C427000EC523300E94
:100EC000325C0A0DF350C427000EC5233350C427EB
:100ED000000EC523300EC45DB86F000EC559B96F42
:100EE000010EBA6FBB6FBC6FBD6FBE6FBF6FC06FBF
:100EF000C16F466EC46F1EEC01F0C46BA9EC01F02B
:100F0000050EC56F0AEC01F0040EC56F570EC46FD5
:100F1000010EC66FC86BC76B34DD5C6A5B6A566ACC
:100F2000040EC46FFA0EC56F0AEC01F0C42FFAD795
:100F3000020EC46F1EEC01F0040EC46FFA0EC56FF2
:100F40000AEC01F0C42FFAD7030EAD6F06EF0CF0D8
:100F5000020EC46F1EEC01F034D5050EC56F0AEC0D
:100F600001F0010EC46F1EEC01F0010EC46FC56BE1
:100F7000C66BC76BAFC0C8F0030EC96F92DD5C6A69
:100F80005B6A040EAD6F06EF0CF0010E566E5B50FF
:100F900064080CE15C520AE1010EC46FC56FC66BB8
:100FA000C76BAFC0C8F0030EC96F7BDD5B50C808CC
:100FB0000CE15C520AE1010EC46FC56FC66FC76BCE
:100FC000AFC0C8F0030EC96F6CDD5B502C080CE19C
:100FD0005C2C0AD0010EC46FC56FC66FC76FAFC05F
:100FE000C8F0030EC96F5DDD5B50900819E15C2C01
:100FF00017D0010EC46FC56FC66FC76FB0C0C8F001
:10100000030EC96F4EDD050EC56F0AEC01F05E6A76
:101010005D6A010E576E5C6A5B6A566A050EAD6FBB
:10102000B15352E1C22D50D024EC03F0050EC56F30
:101030000AEC01F0030EC46F1EEC01F0BEC0C4F058
:1010400050DD050EC56F0AEC01F0BF2D03D024EC76
:1010500003F058DD59EC02F05DDDB9C0C5F0B8C051
:10106000C4F0020EC66FC86BC76B8BDC050EC56F74
:101070000AEC01F0020EC46F1EEC01F0040EC46F06
:10108000E0EC01F0050EC56F0AEC01F0566A5C6AEF
:101090005B6A010E576E5E6AC80E5D6E010EC46F0C
:1010A0001EEC01F0010EC46FC56FC66FC76FB0C0F4
:1010B000C8F0030EC96FF5DC050EC56F0AEC01F030
:1010C0005C6A5B6A060EAD6FA1D3B1532CE1C22DF1
:1010D0002AD0050EC56F0AEC01F0030EC46F1EEC9A
:1010E00001F0BEC0C4F0FDDC050EC56F0AEC01F0D6
:1010F0005EC0ACF05DC0ABF0B9C0C5F0B8C0C4F024
:10110000020EC66FACC0C8F0ABC0C7F03ADC59ECF9
:1011100002F000DD24EC03F0BF2D03D024EC03F03B
:10112000F1DC060EAD6F582C37D0C46B1EEC01F00D
:10113000586AC46B63EC01F0010EC46F95EC01F0CA
:101140001B6AF2BE1B8EF29E5EC0D7F05DC0D6F069
:10115000D96B640ED86FB7EC00F01BBEF28E02C0E4
:10116000C5F001C0C4F01B6AF2BE1B8EF29E5EC0C9
:10117000D7F05DC0D6F0D96B640ED86FB7EC00F035
:101180001BBEF28E00C0C6F003C0C7F0C4C0C8F0DA
:1011900000C0C9F0E2EC03F039D324EC03F0B22D27
:1011A00078D0B353D8A475D024EC03F065EC03F0E9
:1011B000BC2D01D0B6D4BA2D07D0BB2D05D0BADCDA
:1011C00035EC03F03DEC03F0BA5305E1BB5303E10A
:1011D000B1DCB8D4C0D4BA5303E1BB2D01D004D0E4
:1011E000BA2D08D0BB5306E12DEC03F035EC03F02B
:1011F0003DEC03F0B9D45EC0A8F05DC0A7F0C46BAD
:101200001EEC01F0020EC46F63EC01F0C46B95ECB0
:1012100001F01B6AF2BE1B8EF29EA8C0D7F0A7C0D9
:10122000D6F0D96B640ED86FB7EC00F01BBEF28E0F
:1012300002C0C5F001C0C4F01B6AF2BE1B8EF29E54
:10124000A8C0D7F0A7C0D6F0D96B640ED86FB7ECA2
:1012500000F01BBEF28E00C0C6F003C0C7F0C4C0D1
:10126000C8F000C0C9F0E2EC03F0050EC56F0AEC4F
:1012700001F0B9C0C5F0B8C0C4F0040EC66FA8C074
:10128000C8F0A7C0C7F0C1EC04F05C6A5B6A070E47
:10129000AD6FB42D61D0B5535FE145EC03F0BD2DCA
:1012A00001D06BD424EC03F02DEC03F035EC03F00B
:1012B0003DEC03F055EC03F069D45EC0A8F05DC0CE
:1012C000A7F0C46B1EEC01F0020EC46F63EC01F0DA
:1012D000C46B95EC01F01B6AF2BE1B8EF29EA8C097
:1012E000D7F0A7C0D6F0D96B640ED86FB7EC00F07A
:1012F0001BBEF28E02C0C5F001C0C4F01B6AF2BE74
:101300001B8EF29EA8C0D7F0A7C0D6F0D96B640E92
:10131000D86FB7EC00F01BBEF28E00C0C6F003C061
:10132000C7F0C4C0C8F000C0C9F0E2EC03F0050E7D
:10133000C56F0AEC01F0B9C0C5F0B8C0C4F0050E25
:10134000C66FA8C0C8F0A7C0C7F0C1EC04F05C6AC3
:101350005B6A070EAD6FDDD0B62D5FD0B7535DE190
:101360004DEC03F05EC0AAF05DC0A9F024EC03F0E0
:101370005DEC03F0020EC46F1EEC01F0030EC46FAF
:10138000E0EC01F0050EC56F0AEC01F0C46B1EEC39
:1013900001F0C46B95EC01F01B6AF2BE1B8EF29E4D
:1013A000AAC0D7F0A9C0D6F0D96B640ED86FB7EC3D
:1013B00000F01BBEF28E02C0C5F001C0C4F01B6A73
:1013C000F2BE1B8EF29EAAC0D7F0A9C0D6F0D96B90
:1013D000640ED86FB7EC00F01BBEF28E00C0C6F0F2
:1013E00003C0C7F0C4C0C8F000C0C9F0E2EC03F00D
:1013F000050EC56F0AEC01F05C6A5B6AB9C0C5F006
:10140000B8C0C4F0060EC66FAAC0C8F0A9C0C7F025
:10141000C1EC04F0080EAD6F7CD0582C39D0C46BF1
:101420001EEC01F0586A030EC46F63EC01F0010E6C
:10143000C46F95EC01F01B6AF2BE1B8EF29E5EC07B
:10144000D7F05DC0D6F0D96B640ED86FB7EC00F062
:101450001BBEF28E02C0C5F001C0C4F01B6AF2BE12
:101460001B8EF29E5EC0D7F05DC0D6F0D96B640EC5
:10147000D86FB7EC00F01BBEF28E00C0C6F003C000
:10148000C7F0C4C0C8F000C0C9F0E2EC03F041D01E
:101490005E5026083EE2FF0A03E15D500D0839E286
:1014A0005DEC03F0010EC46F1EEC01F0010EC46F81
:1014B000C56FC66FC76FAFC0C8F0030EC96F51ECE0
:1014C00005F0050EC56F0AEC01F0020EC46F1EECAC
:1014D00001F0030EC46FE0EC01F0050EC56F0AECDD
:1014E00001F0270EAA6F0F0EA96FC46B1EEC01F05E
:1014F000C46B63EC01F0C46B95EC01F0630EC86F34
:10150000C96FE2EC03F0050EC56F0AEC01F0080E9E
:10151000AD6F7CD1010E566E5B50C80805E15C5280
:1015200003E1566A060EAD6F5E50260865E2FF0ABB
:1015300003E15D500E0860E25DEC03F0010EC46F44
:101540001EEC01F0010EC46FC56FC66FC76FAFC050
:10155000C8F0030EC96F51EC05F0050EC56F0AEC1B
:1015600001F0020EC46F1EEC01F0040EC46FE0EC3B
:1015700001F0050EC56F0AEC01F05EC0AAF05DC077
:10158000A9F0C46B1EEC01F0C46B63EC01F0C46BFA
:1015900095EC01F01B6AF2BE1B8EF29EAAC0D7F03A
:1015A000A9C0D6F0D96B640ED86FB7EC00F01BBEA3
:1015B000F28E02C0C5F001C0C4F01B6AF2BE1B8EE1
:1015C000F29EAAC0D7F0A9C0D6F0D96B640ED86F2E
:1015D000B7EC00F01BBEF28E00C0C6F003C0C7F02F
:1015E000C4C0C8F000C0C9F0E2EC03F0050EC56F3E
:1015F0000AEC01F0080EAD6F09D1010E566E050E12
:10160000C56F0AEC01F0C46B1EEC01F05B503208B0
:1016100031E15C522FE11B6AF2BE1B8EF29EAAC022
:10162000D7F0A9C0D6F0D96B640ED86FB7EC00F034
:101630001BBEF28E02C0C5F001C0C4F01B6AF2BE30
:101640001B8EF29EAAC0D7F0A9C0D6F0D96B640E4B
:10165000D86FB7EC00F01BBEF28E00C0C6F003C01E
:10166000C7F0C4C0C8F000C0C9F0E2EC03F0C46B1E
:1016700063EC01F05B50640832E15C5230E11B6ABC
:10168000F2BE1B8EF29EAAC0D7F0A9C0D6F0D96BCD
:10169000640ED86FB7EC00F01BBEF28E02C0C5F02E
:1016A00001C0C4F01B6AF2BE1B8EF29EAAC0D7F026
:1016B000A9C0D6F0D96B640ED86FB7EC00F01BBE92
:1016C000F28E00C0C6F003C0C7F0C4C0C8F000C0AE
:1016D000C9F0E2EC03F0020EC46F63EC01F05B5062
:1016E000960832E15C5230E11B6AF2BE1B8EF29E1C
:1016F000AAC0D7F0A9C0D6F0D96B640ED86FB7ECEA
:1017000000F01BBEF28E02C0C5F001C0C4F01B6A1F
:10171000F2BE1B8EF29EAAC0D7F0A9C0D6F0D96B3C
:10172000640ED86FB7EC00F01BBEF28E00C0C6F09E
:1017300003C0C7F0C4C0C8F000C0C9F0E2EC03F0B9
:10174000030EC46F63EC01F05B50C80832E15C52D9
:1017500030E11B6AF2BE1B8EF29EAAC0D7F0A9C070
:10176000D6F0D96B640ED86FB7EC00F01BBEF28ECA
:1017700002C0C5F001C0C4F01B6AF2BE1B8EF29E0F
:10178000AAC0D7F0A9C0D6F0D96B640ED86FB7EC59
:1017900000F01BBEF28E00C0C6F003C0C7F0C4C08C
:1017A000C8F000C0C9F0E2EC03F0010EC46F63ECB6
:1017B00001F05B50D20804E15C5202E15C6A5B6AB2
:1017C000B15324E1C22D22D0C46B1EEC01F0C46BD6
:1017D00063EC01F0010EC46F95EC01F0AEC0D0F0E7
:1017E000640ED16F6DEC03F001C0C4F0AEC0D0F058
:1017F000640ED16F6DEC03F000C0C5F0C4C0C8F03A
:1018000000C0C9F0E2EC03F0010EAD6F0D0E006EEA
:10181000002EFED7B1C0C2F0020EC56F0AEC01F077
:101820008EEF06F0FFD7E824F76AF736470FF66E1B
:10183000180EF722000EF86EFB6E0A00F550FA6ED5
:101840000800F550F96E660D880E500F8A0FCA1009
:061850009A111415FA15AF
:020000040030CA
:0C0000008CFF3FCF9FFFFFDFFFFFFFFFE3
:00000001FF
;PIC18F47Q10
;CRC=4ADE  CREATED="15-mai-25 11:00"
